:020000040000FA
:39000000FFFF62FF3600FFFFFFFFFFFFFFFFFFFFFFFFFFFFFFFFFFFFFFFFFFFFFFFFFFFFFFFFFFFFFFFFFFFFFFFFFFFFFFFFFFFFFFFFFFFFFFFFFFFFFF65
:39003900000C8001300006C0401368026000E4801C30000600000000000000000000000000000000300006C00018000360000C8001300006C0001880CCE0
:390072000012400248000920012A400590002A4005480009000000000000000000000000000000004800092001248004900012400248000920012480922A
:3900AB000000000000000000000000000000000000000000000000000000000000000000000000000000000000000000000000000000000000000080F9A3
:3900E4000000000000000000000000000000000000000000000000000000000000000000000000000000000000000000000000000000000000000080F96A
:39011D000000000000000000000000000000000000000000000000000000000000000000000000000000000000000000000000000000000000000080F930
:390156000000000000000000000000000000000000000000000000000000000000000100000000000000000000000000000000000000000000000080E807
:39018F000000000000000000000000000000000000000000000000000000000000000000000000000000000000000000000000000000000000000080F9BE
:3901C8000000000000000000000000000000000000000000000000000000000000000000000000000000000000000000000000000000000000000080F985
:390201000000000000000000000000000000000000000000000000000000000000000000000000000000000000000000000000000000000000000080F94B
:39023A000000000000000000000000000000000000000000000000000000000000000000000000000000000000000000000000000000000000000080F912
:390273000000000000000000000000000000000000000000000000000000000000000000000000000000000000000000000000000000000000000080F9D9
:3902AC000000000000000000000000000000000000000000000000000000000000000000000000000000000000000000000000000000000000000080F9A0
:3902E5000000000000000000000000000000000000000000000000000000000000000000000000000000000000000000000000000000000000000080F967
:39031E000000000000000000000000000000000000000000000000000000000000000000000000000000000000000000000000000000000000000080F92D
:390357000000000000000000000000000000000000000000000000000000000000000000000000000000000000000000000000000000000000000080F9F4
:390390000000000000000000000000000000000000000000000000000000000000000000000000000000000000000000000000000000000000000080F9BB
:3903C9000000000000000000000000000000000000000000000000000000000000000000000000000000000000000000000000000000000000000080F982
:390402000800000000000000000000000000000000000000000000000000000000000000000000000000000000000000000000000000000000000020DBBE
:39043B000000000000000000000000000000000000000000000000000000000000000000000000000000000000000000000000000000000000000080F90F
:390474000000000000000000000000000000000000000000000000000000000000000000000000000000000000000000000000000000000000000080F9D6
:3904AD000400000000000000000000000000000000000000000000000000000000000000000000000000000000000000000000000000000000000090ACD6
:3904E6000000000000000000000000000000000000000000000000000000000000000000000000000000000000000000000000000000000000000080F964
:39051F000000000000000000000000000000000000000000000000000000000000000000000000000000000000000000000000000000000000000080F92A
:390558000000000000000000000000000000000000000000000000000000000000000000000000000000000000000000000000000000000000000080F9F1
:390591000000000000000000000000000000000000000000000000000000000000000000000000000000000000000000000000000000000000000080F9B8
:3905CA000800000000000000000000000000000000000000000000000000000000000000000000000000000000000000000000000000000000000020DBF5
:390603000000000000000000000000000000000000000000000000000000000000000000000000000000000000000000000000000000000000000080F945
:39063C000000000000000000000000000000000000000000000000000000000000000000000000000000000000000000000000000000000000000080F90C
:390675000400000000000000000000000000000000000000000000000000000000000000000000000000000000000000000000000000000000000090AC0C
:3906AE000000000000000000000000000000000000000000000000000000000000000000000000000000000000000000000000000000000000000080F99A
:3906E7000000000000000000000000000000000000000000000000000000000000000000000000000000000000000000000000000000000000000080F961
:390720000000000000000000000000000000000000000000000000000000000000000000000000000000000000000000000000000000000000000080F927
:390759000000000000000000000000000000000000000000000000000000000000000000000000000000000000000000000000000000000000000080F9EE
:390792000800000000000000000000000000000000000000000000000000000000000000000000000000000000000000000000000000000000000020DB2B
:3907CB000000000000000000000000000000000000000000000000000000000000000000000000000000000000000000000000000000000000000080F97C
:390804000000000000000000000000000000000000000000000000000000000000000000000000000000000000000000000000000000000000000080F942
:39083D000400000000000000000000000000000000000000000000000000000000000000000000000000000000000000000000000000000000000090AC42
:390876000000000000000000000000000000000000000000000000000000000000000000000000000000000000000000000000000000000000000080F9D0
:3908AF000000000000000000000000000000000000000000000000000000000000000000000000000000000000000000000000000000000000000080F997
:3908E8000000000000000000000000000000000000000000000000000000000000000000000000000000000000000000000000000000000000000080F95E
:390921000000000000000000000000000000000000000000000000000000000000000000000000000000000000000000000000000000000000000080F924
:39095A000800000000000000000000000000000000000000000000000000000000000000000000000000000000000000000000000000000000000020DB61
:390993000000000000000000000000000000000000000000000000000000000000000000000000000000000000000000000000000000000000000080F9B2
:3909CC000000000000000000000000000000000000000000000000000000000000000000000000000000000000000000000000000000000000000080F979
:390A05000400000000000000000000000000000000000000000000000000000000000000000000000000000000000000000000000000000000000090AC78
:390A3E000000000000000000000000000000000000000000000000000000000000000000000000000000000000000000000000000000000000000080F906
:390A77000000000000000000000000000000000000000000000000000000000000000000000000000000000000000000000000000000000000000080F9CD
:390AB0000000000000000000000000000000000000000000000000000000000000000000000000000000000000000000000000000000000000000080F994
:390AE9000000000000000000000000000000000000000000000000000000000000000000000000000000000000000000000000000000000000000080F95B
:390B22000800000000000000000000000000000000000000000000000000000000000000000000000000000000000000000000000000000000000020DB97
:390B5B000000000000000000000000000000000000000000000000000000000000000000000000000000000000000000000000000000000000000080F9E8
:390B94000000000000000000000000000000000000000000000000000000000000000000000000000000000000000000000000000000000000000080F9AF
:390BCD000400000000000000000000000000000000000000000000000000000000000000000000000000000000000000000000000000000000000090ACAF
:390C06000000000000000000000000000000000000000000000000000000000000000000000000000000000000000000000000000000000000000080F93C
:390C3F000000000000000000000000000000000000000000000000000000000000000000000000000000000000000000000000000000000000000080F903
:390C78000000000000000000000000000000000000000000000000000000000000000000000000000000000000000000000000000000000000000080F9CA
:390CB1000000000000000000000000000000000000000000000000000000000000000000000000000000000000000000000000000000000000000080F991
:390CEA000800000000000000000000000000000000000000000000000000000000000000000000000000000000000000000000000000000000000020DBCE
:390D23000000000000000000000000000000000000000000000000000000000000000000000000000000000000000000000000000000000000000080F91E
:390D5C000000000000000000000000000000000000000000000000000000000000000000000000000000000000000000000000000000000000000080F9E5
:390D95000400000000000000000000000000000000000000000000000000000000000000000000000000000000000000000000000000000000000090ACE5
:390DCE000000000000000000000000000000000000000000000000000000000000000000000000000000000000000000000000000000000000000080F973
:390E07000000000000000000000000000000000000000000000000000000000000000000000000000000000000000000000000000000000000000080F939
:390E40000000000000000000000000000000000000000000000000000000000000000000000000000000000000000000000000000000000000000080F900
:390E79000000000000000000000000000000000000000000000000000000000000000000000000000000000000000000000000000000000000000080F9C7
:390EB2000800000000000000000000000000000000000000000000000000000000000000000000000000000000000000000000000000000000000020DB04
:390EEB000000000000000000000000000000000000000000000000000000000000000000000000000000000000000000000000000000000000000080F955
:390F24000000000000000000000000000000000000000000000000000000000000000000000000000000000000000000000000000000000000000080F91B
:390F5D000400000000000000000000000000000000000000000000000000000000000000000000000000000000000000000000000000000000000090AC1B
:390F96000000000000000000000000000000000000000000000000000000000000000000000000000000000000000000000000000000000000000080F9A9
:390FCF000000000000000000000000000000000000000000000000000000000000000000000000000000000000000000000000000000000000000080F970
:391008002000048000100002400008000120000480001000000000000000000000000000000000800010000240000800012000048000100002400080F9B2
:391041000000000000000000000000000000000000000000000000000000000000000000000000000000000000000000000000000000000000000080F9FD
:39107A002800048000100002400008000120000480001000000000000000000000000000000000800010000240000800012000048000100002400020DBB6
:3910B3000000000000000000000000000000000000000000000000000000000000000000000000000000000000000000000000000000000000000080F98B
:3910EC002000048000100002400008000120000480001000000000000000000000000000000000800010000240000800012000048000100002400080F9CE
:391125000400000000000000000000000000000000000000000000000000000000000000000000000000000000000000000000000000000000000090AC51
:39115E002000048000100002400008000120000480001000000000000000000000000000000000800010000240000800012000048000100002400080F95B
:391197000000000000000000000000000000000000000000000000000000000000000000000000000000000000000000000000000000000000000080F9A6
:3911D0000000000000000000000000000000000000000000000000000000000000000000000000000000000000000000000000000000000000000080F96D
:391209000000000000000000000000000000000000000000000000000000000000000000000000000000000000000000000000000000000000000080F933
:391242000000000000000000000000000000000000000000000000000000000000000000000000000000000000000000000000000000000000000080F9FA
:39127B000000000000000000000000000000000000000000000000000000000000000000000000000000000000000000000000000000000000000080F9C1
:3912B4000000000000000000000000000000000000000000000000000000000000000000000000000000000000000000000000000000000000000080F988
:3912ED000000000000000000000000000000000000000000000000000000000000000000000000000000000000000000000000000000000000000080F94F
:391326000000000000000000000000000000000000000000000000000000000000000000000000000000000000000000000000000000000000000080F915
:39135F000000000000000000000000000000000000000000000000000000000000000000000000000000000000000000000000000000000000000080F9DC
:391398000000000000000000000000000000000000000000000000000000000000000000000000000000000000000000000000000000000000000080F9A3
:3913D1000000000000000000000000000000000000000000000000000000000000000000000000000000000000000000000000000000000000000080F96A
:39140A000000000000000000000000000000000000000000000000000000000000000000000000000000000000000000000000000000000000000080F930
:391443000000000000000000000000000000000000000000000000000000000000000000000000000000000000000000000000000000000000000080F9F7
:39147C000000000000000000000000000000000000000000000000000000000000000000000000000000000000000000000000000000000000000080F9BE
:3914B5000000000000000000000000000000000000000000000000000000000000000000000000000000000000000000000000000000000000000080F985
:3914EE000000000000000000000000000000000000000000000000000000000000000000000000000000000000000000000000000000000000000080F94C
:391527000000000000000000000000000000000000000000000000000000000000000000000000000000000000000000000000000000000000000080F912
:391560000000000000000000000000000000000000000000000000000000000000000000000000000000000000000000000000000000000000000080F9D9
:391599000000000000000000000000000000000000000000000000000000000000000000000000000000000000000000000000000000000000000080F9A0
:3915D2000000000000000000000000000000000000000000000000000000000000000000000000000000000000000000000000000000000000000080F967
:39160B000000000000000000000000000000000000000000000000000000000000000000000000000000000000000000000000000000000000000080F92D
:391644000000000000000000000000000000000000000000000000000000000000000000000000000000000000000000000000000000000000000080F9F4
:39167D000000000000000000000000000000000000000000000000000000000000000000000000000000000000000000000000000000000000000080F9BB
:3916B6000000000000000000000000000000000000000000000000000000000000000000000000000000000000000000000000000000000000000080F982
:3916EF000000000000000000000000000000000000000000000000000000000000000000000000000000000000000000000000000000000000000080F949
:391728000000000000000000000000000000000000000000000000000000000000000000000000000000000000000000000000000000000000000080F90F
:391761000000000000000000000000000000000000000000000000000000000000000000000000000000000000000000000000000000000000000080F9D6
:39179A000000000000000000000000000000000000000000000000000000000000000000000000000000000000000000000000000000000000000080F99D
:3917D3000000000000000000000000000000000000000000000000000000000000000000000000000000000000000000000000000000000000000080F964
:39180C000000000000000000000000000000000000000000000000000000000000000000000000000000000000000000000000000000000000000080F92A
:391845000000000000000000000000000000000000000000000000000000000000000000000000000000000000000000000000000000000000000080F9F1
:39187E000000000000000000000000000000000000000000000000000000000000000000000000000000000000000000000000000000000000000080F9B8
:3918B7000000000000000000000000000000000000000000000000000000000000000000000000000000000000000000000000000000000000000080F97F
:3918F0000000000000000000000000000000000000000000000000000000000000000000000000000000000000000000000000000000000000000080F946
:391929000000000000000000000000000000000000000000000000000000000000000000000000000000000000000000000000000000000000000080F90C
:391962000000000000000000000000000000000000000000000000000000000000000000000000000000000000000000000000000000000000000080F9D3
:39199B000000000000000000000000000000000000000000000000000000000000000000000000000000000000000000000000000000000000000080F99A
:3919D4000000000000000000000000000000000000000000000000000000000000000000000000000000000000000000000000000000000000000080F961
:391A0D000000000000000000000000000000000000000000000000000000000000000000000000000000000000000000000000000000000000000080F927
:391A46000000000000000000000000000000000000000000000000000000000000000000000000000000000000000000000000000000000000000080F9EE
:391A7F002000148112D00012500008000DA801348006D000000000000000000000000000000000000010001A000000000020900480000000004003809A32
:391AB8000000001004040000000000000000000000000000000000000000000000000000000000000000000000000000000000000000000000000080BCA1
:391AF1000000310006000010000002000000000008060120000000000000000000000000000000000000800000000000000000300806000000000000FC8A
:391B2A000010000506040209041360088C1080300046C0040000000000000000000000000000000000C0049802000000000000020010010000005300AA15
:391B6300002030012600000805800000841000302020C808000000000000000000000000000000000000201800000000000048800810080000002301B875
:391B9C0060002CA005F1201EC003184007E0410C800130200000000000000000000000000000000000F00006100000000060003C8007000000C000009710
:391BD5000000300006C000180003000008880100000000800000000000000000000000000000000000C00000040000000000003010060200000080009D8C
:391C0E008045300816C1425804830041288029B01046C4000000000000000000000000000000000000C020180100000000000532001600000000130083F0
:391C47000000042000000012400268000120000480101000000000000000000000000000000000000090001210000000002000348006000000400040DDD6
:391C8000000000000000000008030100000000000000010000000000000000000000000000000000000040000000000000000000000000000000008083DB
:391CB900000020000000001008006100008001000002C0400000000000000000000000000000000000002010000000000000000008060000000000829C7A
:391CF2000800001100000040002060080C88013120A00000000000000000000000000000000000000040004804000000000000320080000000001330A72A
:391D2B000000200100000000210B60000082090008060880000000000000000000000000000000000040040804000000000048B00820040000009010D1CC
:391D640000000C200000000EC08378400F60403C8001F0000000000000000000000000000000000000F0201E000000000060000C8001000000C003009245
:391D9D000400200000000010100060000C8001300006C0000000000000000000000000000000000000C00018000000000000000010060000000003B092B3
:391DD6000000900800000040000264412C8245B00804C442000000000000000000000000000000000080221805000000008005320006010000008B80AB6D
:391E0F00300004A200000002400368000920002480009008000000000000000000000000000000000010001200000000002000048006000000400280A183
:391E48000000000000000010080060000004000110060080000000000000000000000000000000000000000008000000000000000000000000000081D8ED
:391E810000001110000000000800600000880000000681000000000000000000000000000000000000004010040000000080010020000000000080808318
:391EBA000C000001000000000120610824002890104040280000000000000000000000000000000000000200010000000080013001A0000000001120F24C
:391EF3000480300126010088041000004480011001204828000000000000000000000000000000000000084110000000008051000810000000001100CCB9
:391F2C0060001CA007000016C08378400F62803C8807F000000000000000000000000000000000000030000E0000000000E0013C8007010000C08300A7CF
:391F65000C00300000000000000361000C8001300006C020000000000000000000000000000000000000001000000000008081300006040000000392E937
:391F9E008089300AA000001005136041081001214140C4080000000000000000000000000000000000C0404020000000008001300A46000000000280A153
:391FD700200014822008001A4000680041A40805A20010880000000000000000000000000000000000104402400000000020112680060000004010C1B2CF
:3920100000000020000000000000600004000010000080000000000000000000000000000000000000400010080000000000010010000000000001009D7C
:392049008001101000040000080000000888002000060000000000000000000000000000000000000080200010030000000001001000000000008280F93C
:392082000828000226000058000B624120002080100684440000000000000000000000000000000000000000000300000080041200160100000010B0B405
:3920BB0000503001020000182180600C2C820130091641000100000000000000000000000000000000C02448048B0000000045100916080000008B10E84A
:3920F400E0013CA005010006C00378000BE0812C800130000000000000000000000000000000000000B00016C003000000E0003C8001000000C00280AF4F
:39212D0004000100060100181003600004000011200680000000000000000000000000000000000000400000080302000000013010000200000001B09551
:392166008009A02044000040000364420C100930020601420000000000000000000000000000000000C0021101130000008088A00016000000000302C7B9
:39219F00300004A01001004A440000000128442491061000000000000000000000000000000000000050181A40030000002000049106000000400080E438
:3921D8000000000004000008000000000000002000008040000000000000000000000000000000000040000000000000000080100000000000000080ABE7
:392211000000200000000000000002000C80000000060040000000000000000000000000000000000000000000800000000080201000000000000082F6F8
:39224A000C000011200800000813000080102800101602080000000000000000000000000000000000004200020000000000040000060100000023A0F110
:392283000408200120000010042004008090819008C0400000000000000000000000000000000000008022800400040000000431010600000000208080EE
:3922BC0060400CA001040016C00300000B60001C8001B0800000000000000000000000000000000000B0001EC00300000060002CA001010000C08300E89D
:3922F5008C412008000400180883000004880130100000200000000000000000000000000000000000C0401800030000000000100000000000000310A643
:39232E008011100010000098000B00002C000131010688020000000000000000000000000000000000C00458080B0200000081304226020000009300A8AC
:39236700A00114C200D0001A40116800293000348022D40000000000000000000000000000000000001000124300680100A0010480060000004002848ED3
:3923A0000000000000000018000261000800000000000000000000000000000000000000000000000000001000004020000000000000000000000280B1DE
:3923D9000040300000004000000000000080010000020080000000000000000000000000000000000000000008036000008081300006000000000080CF27
:39241200081000052602080000126108808401801040C8000000000000000000000000000000000000C0824000036020008005000520080000004090E3C2
:39244B00000830012004228000A16000848209000806C8840000000000000000000000000000000000002008050B610200800501002004000000A1309742
:39248400E0012DA001F00006C802784007E0813C800730000000000000000000000000000000000000F0000EC003782000E0013CA001000000C00180DC69
:3924BD008401300800C10000000161000C0400300000C4000000000000000000000000000000000000C02018080360000080013000060100000003A1D46F
:3924F6008091300200C04240202360414C0080B0202400420000000000000000000000000000000000C0009800436081008081304016000000001380A804
:39252F00301005A200D000024011080001A00835800010000000000000000000000000000000000000D0001A4003080000A011368000000000400300FD17
:392568000000000006000000000261000000000000060000000000000000000000000000000000000000000000000000000001000000000000000080DB6F
:3925A10000001010000200000000610000800030200600000000000000000000000000000000000000000000040062000080013020060000000080009D4E
:3925DA000C88000110004098021260082C0890800010C2140000000000000000000000000000000000004200011060000080050200000100000010A0EAD0
:392613000480300140002800002164000082810004C00002000000000000000000000000000000000000280004A06011008045002100000000009080AF41
:39264C0060001CA001F2001EC40278400FE0010C8007F0200000000000000000000000000000000000F0001EC003780000E0010C8007010000C003009501
:392685000C00300800C20018000160000C0800310806C0000000000000000000000000000000000000C0801800036000008001300806000000000310D726
:3926BE000091300120C04218020B62412C0009300000C8240000000000000000000000000000000000C00858100B6182008089300026020000000B828F4B
:3926F700A089048222080002404208000120000480101400000000000000000000000000000000000010000240020A0000200004800010001A400380A0ED
:392730000001002000000000000000000000000000000000000000000000000000000000000000000000000000026000000000000000000000000080EF7E
:392769000000100002000000000000000080010000000000000000000000000000000000000000000000000010800000008001002006010018000000B3A1
:3927A2000880A02010020058100101084C810131052001000000000000000000000000000000000000C0141801080020008001300210C01400201014AB72
:3927DB0080443001460000000501000080805100024400100000000000000000000000000000000000000000019100020080458000400108000280B08900
:39281400E0010CA00702001EC08378400F62003C880534000000000000000000000000000000000000F0201EC401182000E0013C8807F08006C00380BD21
:39284D008481300800040018080300000C8041300002C2200000000000000000000000000000000000C0001800030100008001300006C40018040320E493
:392886008009A00024000058000204414C8211300942C0040000000000000000000000000000000000C0489804130081008089300806C04898000B01C91B
:3928BF001000000000000000000000000000000000000000000000000000000000000000000000000000000000000000000000000000000000000080F858
:3928F8002000048000100002400008000120000480001000000000000000000000000000000000800010000240000800012000048000100002400080F9AA
:392931000000000000000000000000000000000000000000000000000000000000000000000000000000000000000000000000000000000000000080F9F4
:39296A002C00048000100002400008000120000480001000000000000000000000000000000000800010000240000800012000048000100002400010ACE8
:3929A30004000000000000000000000000000000000000000000000000000000000000000000000000000000000000000000000000000000000000B08EB9
:3929DC002000048000100002400008000120000480001000000000000000000000000000000000800010000240000800012000048000100002400080F9C5
:392A15000C000000000000000000000000000000000000000000000000000000000000000000000000000000000000000000000000000000000000209FBD
:392A4E002000048000100002400008000120000480001000000000000000000000000000000000800010000240000800012000048000100002400080F952
:392A87000006800000020040000800000004804010000240000000000000000000000000000000000000024000000000000000800000000000000800E284
:392AC0000002400000080020000400001000204000800001000000000000000000000000000000000000012000000000000000400000000000000400CD4C
:392AF9000000000000000000000000000000020004800000000000000000000000000000000000000000000000000000000000000000000000000000B36B
:392B32000000000000000000000000000000000000000000000000000000000000000000000000000000000000000000000000000000000000000090E8F2
:392B6B000200000000000120000000000000008000000002000000000000000000000000000000000000000000008000000000000000000000000080C8C4
:392BA4000000000000000000000000000000000004000010000000000000000000000000000000000000000000000000000000000000000000000080A8BC
:392BDD0000000000000000000000000000004000200100000000000000000000000000000000000000000000000000000000000000000000000000809A44
:392C16000040000000010000000020100400000100004000000000000000000000000000000000000000000000000000000000000800000000000000DFE8
:392C4F0000000100000400000000084A01008001100110000000000000000000000000000000000000000000000000000000000020000000000000C0E191
:392C880008096400204001000001404820004000000000020000000000000000000000000000000000000000000200000080406006040000000000808125
:392CC10000000000004000000002000000004000000000000000000000000000000000000000000000000000000000000080400000000000000000809781
:392CFA008200100000000000000040100000000000000000000000000000000000000000000000000000000000010000000000100802000000000010B7DD
:392D33000000000000000000020000000001000000000000000000000000000000000000000000000000010000080000000002000000000000000080C217
:392D6C000000000000800000000000000000000000000800000000000000000000000000000000000000101000020000000000000000000000000280C042
:392DA5000000000000000000000400002000000000000000000000000000000000000000000000000000000000000000000000000000000000000080BF92
:392DDE000000000000000000000000000000000000040000000000000000000000000000000000000000000800000000000000000000000000000000FDB3
:392E17000000000000000002000000000000000020000080000000000000000000000000000000000000000000000000000000000000000000000000FBE5
:392E50000004800000000008000100000400008000004000000000000000000000000000000000000040004000000000000000100000000000000180A146
:392E89000000000000000010000200000800010000000000000000000000000000000000000000000000000000004000000000100000800000000080D7CE
:392EC200A000148004400002400000000120001480021000000000000000000000000000000000000090000002004000000000000480100002004000BFEF
:392EFB000000200001000001200000000070000080000000000000000000000000000000000000000000000240000080000000000000000000000080E842
:392F340000000000000000000000000000000000000004000000000000000000000000000000000000000002000000000000000400000000001000808B3F
:392F6D0008401000000200080000000000800000000040000000000000000000000000000000000002000008040020000000400000000000000000808794
:392FA6004000080002000000040020100000000000022000000000000000000000000000000000000000000000000000000200000802010000040000E45D
:392FDF0020800C800002000C10000840004000008000B00200000000000000000000000000000000010000040800100000088000A000040080120080C298
:393018000050802E510100800041200A0680041000040000000000000000000000000000000000001D00005000814010408000200B02810088000280CB25
:393051000040001000010000000120000480001000000000000000000000000000000000000000000000000000410008008000000802010008000080A341
:39308A0000000008000000000040001000000000000200000000000000000000000000000000000002000008000020000000001000004000000001808E2A
:3930C3000000000008000008000000000000000000000400000000000000000000000000000000000050000020000200008020020002000000000080E04A
:3930FC000000000088000000100002300008020000000000000000000000000000000000000000000000800000000000000000000010000000800000EACD
:393135000000001802050000000000000000000000000000000000000000000000000000000000000000000800010000000000000800000000000001CC64
:39316E00002000200000000000000000000000200000A000000000000000000000000000000000000000000008000000004002093008000000400080BF1E
:3931A7000000000000000000000000000000000000000000000000000000000000000000000000000000000100000000000000000000000000000058B5E1
:3931E0000000000000000000000000000000800000000000000000000000000000000000000000000000000000000000000000000000000000000000F145
:3932190040000800000000048000080002000008000001000000000000000000000000000000000000A00004800000400000000000000000008000828CAB
:393252000000000000010000000000000000000000000000000000000000000000000000000000000000000000000000000000808000000000000000F84A
:39328B0000400000000000000000000000000000000000000000000000000000000000000000000000000000020000000000000080000400000000809133
:3932C4000200000000000000000000000010000000000042000000000000000000000000000000000000000000000000000000004000000000000800AA8B
:3932FD000001000090000000000000000000040000100000000000000000000000000000000000000000000000000000000000000000084000400000A0CB
:393336000000000800000000048000000002000008000000000000000000000000000000000000000000200004800000000000000000000000008000BDE7
:39336F000000000000100000000000000020000402001008000000000000000000000000000000000000000000000000000000000000000000000000A631
:3933A8000000000000000000000000000000000008000020000000000000000000000000000000000000000000000000000000000000000000000000D3F1
:3933E1000000000000C02000000000000080011020004040000000000000000000000000000000000000000000000000000000000000000000000080D151
:39341A000000000000000800000000000080290001000002000000000000000000000000000000000000000000000000000000000000000000000080E065
:393453000000000000C0000000000000008041B01000C082000000000000000000000000000000000000000000000000000000000000000000000000C6F7
:39348C000000000000F04000000000000060000C00003000000000000000000000000000000000000000000000000000000000000000000000000080A417
:3934C500000000000000400000000000008041301000C000000000000000000000000000000000000000000000000000000000000000000000000000A22B
:3934FE000000000000C00200000000000080112001008014000000000000000000000000000000000000000000000000000000000000000000000080C944
:3935370010000000001008010000000000200004000010000000000000000000000000000000000000000000000000000000000000000000000000009F5F
:39357000000000000000000000000000000000310000C000000000000000000000000000000000000000000000000000000000000000000000000080E7CA
:3935A900000000000040000000000000008000310000C0200000000000000000000000000000000000000000000000000000000000000000000000008593
:3935E2000C000000008014000000000000000800050000080000000000000000000000000000000000000000000000000000000000000000000000208259
:39361B000400000000C00000000000000080810021000000000000000000000000000000000000000000000000000000000000000000000000000000CEC2
:393654000000000000304000000000000060003C0000F080000000000000000000000000000000000000000000000000000000000000000000000080E35E
:39368D000C00000000C0200000000000008001300000C000000000000000000000000000000000000000000000000000000000000000000000000010E8AF
:3936C60000000000008004000000000000002900400000040100000000000000000000000000000000000000000000000000000000000000000000009940
:3936FF001000000000D0000000000000002000141100D000000000000000000000000000000000000000000000000000000000000000000000000000CBD2
:393738000000000000000000000000000000000000000000000000000000000000000000000000000000000000000000000000000000000000000080F9DF
:39377100000000000000000000000000008001102000C020000000000000000000000000000000000000000000000000000000000000000000000000F599
:3937AA000C0000000000280000000000008029000200C0080000000000000000000000000000000000000000000000000000000000000000000000A0900F
:3937E3000400000000C0180000000000008001B010000000000000000000000000000000000000000000000000000000000000000000000000000000EFA1
:39381C000000000000F00000000000000060803C00003080000000000000000000000000000000000000000000000000000000000000000000000080AB8C
:393855000C00000000000000000000000080010000000000000000000000000000000000000000000000000000000000000000000000000000000090AD70
:39388E000000000000C0880000000000008041204200C004010000000000000000000000000000000000000000000000000000000000000000000000D3FE
:3938C7000000000000D00000000000000020101442001000000000000000000000000000000000000000000000000000000000000000000000000000B3AF
:393900000000000000000000000000000000001100000000000000000000000000000000000000000000000000000000000000000000000000000080E914
:39393900000000000000200000000000000000002000C000000000000000000000000000000000000000000000000000000000000000000000000080D500
:39397200080000000000020000000000008021000200C0140000000000000000000000000000000000000000000000000000000000000000000000A0A556
:3939AB000000000000C0000000000000000009000600C022000000000000000000000000000000000000000000000000000000000000000000000000D65C
:3939E4000000000000F08000000000000060800C00003000000000000000000000000000000000000000000000000000000000000000000000000000A07E
:393A1D00040000000000400000000000008001200000C000000000000000000000000000000000000000000000000000000000000000000000000010A714
:393A56000000000000C0000000000000008004A24000C024000000000000000000000000000000000000000000000000000000000000000000000080B7F6
:393A8F00100000000010820000000000002050340000D000000000000000000000000000000000000000000000000000000000000000000000000080FA6E
:393AC8000000000000000000000000000000000000000000000000000000000000000000000000000000000000000000000000000000000000000080F94C
:393B0100000000000000200000000000008000010000C000000000000000000000000000000000000000000000000000000000000000000000000000E644
:393B3A000C0000000000000000000000000008002000C010000000000000000000000000000000000000000000000000000000000000000000000020A886
:393B730004000000000040000000000000800132210000020000000000000000000000000000000000000000000000000000000000000000000000008B74
:393BAC000000000000700000000000000060003C00003040000000000000000000000000000000000000000000000000000000000000000000000000EF75
:393BE5000C00000000804000000000000080010000000000000000000000000000000000000000000000000000000000000000000000000000000010A1A9
:393C1E000000000000C0080000000000000029304000C080000000000000000000000000000000000000000000000000000000000000000000000000D3F9
:393C57000000000000D000000000000000A011348042514400000000000000000000000000000000000000000000000000000000000000000000000087A1
:393C90000000000000000000000000000080010100000000000000000000000000000000000000000000000000000000000000000000000000000000E990
:393CC9000000000000000000000000000080013000004000000000000000000000000000000000000000000000000000000000000000000000000000FFD2
:393D020008000000000048000000000000002030052004840000000000000000000000000000000000000000000000000000000000000000000000208893
:393D3B000000000000C00200000000000080080021C0C082000000000000000000000000000000000000000000000000000000000000000000000080CD95
:393D74000000000000F040000000000000E0810C8001F000000000000000000000000000000000000000000000000000000000000000000000000000A068
:393DAD000400000000000000000000000000000000000000000000000000000000000000000000000000000000000000000000000000000000000090AC9D
:393DE6000000000000C08000000000000000053240048808010000000000000000000000000000000000000000000000000000000000000000000000DC7C
:393E1F00A0010000001000000000000000A011048012180000000000000000000000000000000000000000000000000000000000000000000000000097C3
:393E5800000000000000000000000000000000010002C000000000000000000000000000000000000000000000000000000000000000000000000080E608
:393E9100000000000000000000000000000000301000C400000000000000000000000000000000000000000000000000000000000000000000000080A3D1
:393ECA000820000000C002010000000000800532012000100000000000000000000000000000000000000000000000000000000000000000000000208646
:393F03000050000000C0800000000000000009B000200002000000000000000000000000000000000000000000000000000000000000000000000000EE2C
:393F3C00E001000000300000000000000060810C8801F2400000000000000000000000000000000000000000000000000000000000000000000000809C77
:393F75008481000000C0000000000000008000300004C000000000000000000000000000000000000000000000000000000000000000000000000010F7D3
:393FAE008005000000C02200000000000080203009040280000000000000000000000000000000000000000000000000000000000000000000000080D4C0
:393FE70010000000001000000000000000A08804A21011000100000000000000000000000000000000000000000000000000000000000000000000008D04
:394020000000000000000000000000000000000000044000000000000000000000000000000000000000000000000000000000000000000000000080F9AA
:394059000000000000C04000000000000080000000000400000000000000000000000000000000000000000000000000000000000000000000000080F139
:394092000C00000000C0040000000000000004020A1080800000000000000000000000000000000000000000000000000000000000000000000000A085E0
:3940CB000400000000C00800000000000080010220200202000000000000000000000000000000000000000000000000000000000000000000000000D653
:3941040000000000003020000000000000E0010C80057040000000000000000000000000000000000000000000000000000000000000000000000000AE62
:39413D000C00000000C00000000000000000000010000200000000000000000000000000000000000000000000000000000000000000000000000090D704
:394176000000000000C024000000000000001122010080840000000000000000000000000000000000000000000000000000000000000000000000809ED6
:3941AF001000000000000000000000000000000000000000000000000000000000000000000000000000000000000000000000000000000000000080F84F
:3941E8002000048000100002400008000120000480001000000000000000000000000000000000800010000240000800012000048000100002400080F9A1
:394221000000000000000000000000000000000000000000000000000000000000000000000000000000000000000000000000000000000000000080F9EB
:39425A002C00048000100002400008000120000480001000000000000000000000000000000000800010000240000800012000048000100002400010ACDF
:3942930004000000000000000000000000000000000000000000000000000000000000000000000000000000000000000000000000000000000000B08EB0
:3942CC002000048000100002400008000120000480001000000000000000000000000000000000800010000240000800012000048000100002400080F9BC
:394305000C000000000000000000000000000000000000000000000000000000000000000000000000000000000000000000000000000000000000209FB4
:39433E002000048000100002400008000120000480001000000000000000000000000000000000800010000240000800012000048000100002400080F949
:394377000000000000000000000000000000000000000000000000000000000000000000000000000000000000000000000000000000000000000080F994
:3943B0000000000000000000000000000000000000000000000000000000000000000000000000000000000000000000000000000000000000000080F95B
:3943E9000000000000201000000000000000800800880000000000000000000000000000000000000000000000000000000000000000000000000000D08B
:3944220008000000000080000000000000A0001000005000000000000000000000000000000000000000000000000000000000000000000000000080D782
:39445B000000000000000000000000000000000000000000000000000000000000000000000000000000000000000000000000000000000000000080F9AF
:394494000000000000000000000000000000000000000000000000000000000000000000000000000000000000000000000000000000000000000080F976
:3944CD000000000000000000000000080000400020000000000000000000000000000000000000000000000000000000000000000000000000000080933B
:394506000000000000000000000000000000000100000000000000000000000000000000000000000000000000000000000000000000000000000080E813
:39453F000000000000000000000000200000800110020000000000000000000000000000000000000000000000000000000000000000000000000000D3BD
:39457800120010000000000000012010000001000A1A0000000000000000000000000000000000000000000000000000000000000000000000000000DAB8
:3945B100000004000000000000024008000000000802000000000000000000000000000000000000000000000000000000000000000000000000000099E0
:3945EA000000000000000000000000000080000000000000000000000000000000000000000000000000000000000000000000000000000000000000F91F
:394623000000000000000200000000000000000000100000000000000000000000000000000000000000000000000000000000000000000000000080CB01
:39465C000000000000000000000000000000000000000000000000000000000000000000000000000000000000000000000000000000000000000080F9AC
:394695000000000000000000000000000000000000000000000000000000000000000000000000000000000000000000000000000000000000000080F973
:3946CE000000000000000000000000000000000004000000000000000000000000000000000000000000000000000000000000000000000000000080B976
:394707000000000000000000000000000000000010000000000000000000000000000000000000000000000000000000000000000000000000000080E801
:394740000000000000000000000000000000000000000000000000000000000000000000000000000000000000000000000000000000000000000080F9C7
:394779008000000000400000000000000000058000044000000000000000000000000000000000000000000000000000000000000000000000000080BC42
:3947B2000000000000C00000000000000000000000028000000000000000000000000000000000000000000000000000000000000000000000000000BBD1
:3947EB0000000000001020000000000000000002C00000000000000000000000000000000000000000000000000000000000000000000000000000008D16
:394824000000000000000000000000000000008000000400000000000000000000000000000000000000000000000000000000000000000000000080B5A2
:39485D004400080002000002000000000000000000008000000000000000000000000000000000000000000000000000000000000000000000000080B919
:394896000000000000000000000000000080400000020000000000000000000000000000000000000000000000400000000000000000000000020000F9EC
:3948CF004000080001010004000000000020000180006000000000000000000000000000000000000000000000000200000000000000000000100000A3AC
:394908000400005A3E0000000080000004004F00081A0002000000000000000000000000000000000400000000000008000000000000000000000080BC9B
:394941000000000402000000004000000800400008020000000000000000000000000000000000000000000000000000000000000000000000000080D352
:39497A000000000004000000000000000080000000000000000000000000000000000000000000000400000000000008000000000000000000000080F5FF
:3949B3000000000000000000000000000040000000000000000000000000000000000000000000000000000000000000000000000000000000000080BD4E
:3949EC000000000000000000000000000000020000000200000000000000000000000000000000000000000000000000000000000000000000000080D935
:394A25000000000000000001000000000000001100000800000000000000000000000000000000000000000000000000000000000000000000000000F945
:394A5E000000000000000000000000000000000400010000000000000000000000000000000000000000000000000000000000000000000000000080BCDE
:394A97000000000000004000000000000000000000000040000000000000000000000000000000000000000000000000000000000000000000000008B1AD
:394AD0000000000000000000000000000000800000000000000000000000000000000000000000000000000000000000000000000000000000000000F13C
:394B09002000000000800000000000000020000400000000000000000000000000000000000000000000000000000000000000000000000000000000951A
:394B42000000000000000000000000000000000000000000000000000000000000000000000000000000000000000000000000000000000000000080F9C1
:394B7B000000000000000000000000000000000000001000000000000000000000000000000000000000000000000000000000000000000000000080F879
:394BB4000200000000104100000000000000000260000040010000000000000000000000000000000000000000000000000000000000000000000080DF73
:394BED000000000000000000000000000000000000000090000000000000000000000000000000000000000000000000000000000000000000000000E817
:394C26000000000000200000000000000000000000000000000000000000000000000000000000000000000000000000000000000000000000000080D9DC
:394C5F000000000000000000000000000000000000000000000000000000000000000000000000000000000000000000000000000000000000000080F9A3
:394C98000000000000000000000000000000000000000000000000000000000000000000000000000000000000000000000000000000000000000080F96A
:394CD1000000000000000000000000000000000000000000000000000000000000000000000000000000000000000000000000000000000000000080F931
:394D0A000000000000000000000000000000000000000000000000000000000000000000000000000000000000000000000000000000000000000080F9F7
:394D43000015A0024800092001548004900012400248000900000000000000000000000000000000480009200154800A900012400248000920012480FEB9
:394D7C00C0093801300006C000C8020360000C800130000600000000000000000000000000000000300006C000C8035960000C8001300006C0001800AE53
:024DB500FFFFFE
:00000001FF
