:020000040000FA
:39000000FFFF62FF3600FFFFFFFFFFFFFFFFFFFFFFFFFFFFFFFFFFFFFFFFFFFFFFFFFFFFFFFFFFFFFFFFFFFFFFFFFFFFFFFFFFFFFFFFFFFFFFFFFFFFFF65
:39003900000C80013000069A0018000360000C80AC26000600000000000000000000000000000000300106C000C8020360000C8001300006C00018808291
:39007200001240024800095001248004900012400554000900000000000000000000000000000000E80009200154800490001240024800092001248098F7
:3900AB000000000000000000000000000000000000000000000000000000000000000000000000000000000000000000000000000000000000000080F9A3
:3900E4000000000000000000000000000000000000000000000000000000000000000000000000000000000000000000000000000000000000000080F96A
:39011D000000000000000000000000000000000000000000000000000000000000000000000000008000000000000000000000000000000000000080F1B8
:390156000000000000000000000000000000000000000000000000000000000000000100000000002200000000000000000000000000000000000080C805
:39018F000000000000000000400104000000000000000000000000000000000000000000000000000000000000000000000000000000000000000080E88A
:3901C8000000000000000000000200000000000000000000000000000000000000000000000000000000000000000000000000000000000000000080DBA1
:390201000000000000000000C00100000000000000000000000000000000000000000000000000000000000000000000000000000000000000000000A063
:39023A0000000000000000004002000000000000000000000000000000000000000000000000000000000000000000000000000000000000000000809B2E
:390273000000000000000000000100000000000000000000000000000000000000000000000000000000000000000000000000000000000000000080E8E9
:3902AC000000000000000000C0020000000000000000000000000000000000000000000000000000000000000000000000000000000000000000000093C4
:3902E5000000000000000000000100000000000000000000000000000000000000000000000000000000000000000000000000000000000000000080E877
:39031E000000000000000000000200000000000000000000000000000000000000000000000000000000000000000000000000000000000000000080DB49
:3903570000000000000000004000000000000000000000000000000000000000000000000000008002000000000000000000000000000000000000009318
:3903900000000000000000000000000000000000000000000000000000000000000000000000000004020000000000000000000000000000000000809D11
:3903C9000000000000000000000000000000000000000000000000000000000000000000000000800300000000000000000000000000000000000000C2B6
:3904020008000000000000000000000000000000000000000000000000000000000000000000008004000000000000000000000000000000000000A097FE
:39043B000000000000000000000000000000000000000000000000000000000000000000000000000200000000000000000000000000000000000080DB2B
:390474000000000000000000C08000000000000000000000000000000000000000000000000000800500000000000000000000000000000000000080E426
:3904AD0004000000000000000003020000000000000000000000000000000000000000000000000002000000000000000000000000000000000000909DDE
:3904E6000000000000000000000B000000000000000000000000000000000000000000000000000004000000000000000000000000000000000000008E40
:39051F0010000000000000004061000000000000000000000000000000000000000000000000000000000000000000000000000000000000000000C0EB47
:390558000000000000000000000200000000000000000000000000000000000000000000000000000000000000000000000000000000000000000080DB0D
:390591000000000000000000C00100000000000000000000000000000000000000000000000000000000000000000000000000000000000000000000A0D0
:3905CA000C00000000000000400200000000000000000000000000000000000000000000000000000000000000000000000000000000000000000030EC8E
:390603000400000000000000000100000000000000000000000000000000000000000000000000000000000000000000000000000000000000000090BD6C
:39063C000000000000000000C002000000000000000000000000000000000000000000000000000000000000000000000000000000000000000000009330
:390675000C000000000000000001000000000000000000000000000000000000000000000000000000000000000000000000000000000000000000309F70
:3906AE000000000000000000000200000000000000000000000000000000000000000000000000000000000000000000000000000000000000000080DBB6
:3906E7000000000000000000400000000000000000000000000000000000000000000000000000000000000000000000000000000000000000000080B961
:390720000000000000000000000300000000000000000000000000000000000000000000000000000000000000000000000000000000000000000080CA53
:390759000000000000000000000302000000000000000000000000000000000000000000000000000000000000000000000000000000000000000080EAF8
:390792000800000000000000000B000000000000000000000000000000000000000000000000000000000000000000000000000000000000000000A0E893
:3907CB000000000000000000000800000000000000000000000000000000000000000000000000000000000000000000000000000000000000000000F9F4
:390804000000000000000000C00001000000000000000000000000000000000000000000000000000000000000000000000000000000000000000000A159
:39083D00040000000000000000830000000000000000000000000000000000000000000000000000000000000000000000000000000000000000009097D4
:390876000000000000000000002300000000000000000000000000000000000000000000000000000000000000000000000000000000000000000080C8DE
:3908AF001000000000000000402104000000000000000000000000000000000000000000000000000000000000000000000000000000000000000080EB30
:3908E8000000000000000000000200000000000000000000000000000000000000000000000000000000000000000000000000000000000000000080DB7A
:390921000000000000000000C00100000000000000000000000000000000000000000000000000000000000000000000000000000000000000000000A03C
:39095A000C00000000000000400200000000000000000000000000000000000000000000000000000000000000000000000000000000000000000010CE38
:3909930004000000000000000001000000000000000000000000000000000000000000000000000000000000000000000000000000000000000000B09FD7
:3909CC000000000000000000C00200000000000000000000000000000000000000000000000000000000000000000000000000000000000000000000939D
:390A05000C000000000000000001000000000000000000000000000000000000000000000000000000000000000000000000000000000000000000208EFD
:390A3E000000000000000000000200000000000000000000000000000000000000000000000000000000000000000000000000000000000000000080DB22
:390A770000000000000000004003000000000000000000000000000000000000000000000000000000000000000000000000000000000000000000808AF9
:390AB0000000000000000000000300000000000000000000000000000000000000000000000000000000000000000000000000000000000000000080CAC0
:390AE9000000000000000000000000000000000000000000000000000000000000000000000000000000000000000000000000000000000000000080F95B
:390B220004000000000000000000000000000000000000000000000000000000000000000000000000000000000000000000000000000000000000A09F57
:390B5B000C0000000000000000A300000000000000000000000000000000000000000000000000000000000000000000000000000000000000000000842E
:390B94000000000000000000C0030000000000000000000000000000000000000000000000000000000000000000000000000000000000000000000082E3
:390BCD000800000000000000000302000000000000000000000000000000000000000000000000000000000000000000000000000000000000000010FBD7
:390C06000000000000000000000B00000000000000000000000000000000000000000000000000000000000000000000000000000000000000000000CAE0
:390C3F000000000000000000401100000000000000005010000000000000000000000000000000000000000000000000000000000000000000000080BD8E
:390C78000000000000000000000202000000000000008000000000000000000000000000000000000000000000000000000000000000000000000080F34C
:390CB1000000000000000000C00100000000000000007000000000000000000000000000000000000000000000000000000000000000000000000000A732
:390CEA0008000000000000004002000000000000000090000000000000000000000000000000000000000000000000000000000000000000000000108364
:390D230000000000000000000001000000000000000040000000000000000000000000000000000000000000000000000000000000000000000000B0DFC7
:390D5C000000000000000000C0020000000000000000B0000000000000000000000000000000000000000000000000000000000000000000000000009854
:390D950004000000000000000001000000000000000040000000000000000000000000000000000000000000000000000000000000000000000000A08AB6
:390DCE000000000000000000000200000000000000008000000000000000000000000000000000000000000000000000000000000000000000000080D317
:390E07001000000000000000400000000000000000000000000000000000000000000000000000000000000000000000000000000000000000000080B82A
:390E40000000000000000000000000000000000000000000000000000000000000000000000000000000000000000000000000000000000000000080F900
:390E79000000000000000000000000000000000000000000000000000000000000000000000000000000000000000000000000000000000000000080F9C7
:390EB2000C000000000000000000000000000000000000000000000000000000000000000000000000000000000000000000000000000000000000209F3C
:390EEB000400000000000000000800000000000000000000000000000000000000000000000000000000000000000000000000000000000000000000BD05
:390F24000000000000000000C08000000000000000000000000000000000000000000000000000000000000000000000000000000000000000000000B99B
:390F5D000C00000000000000000302000000000000000000000000000000000000000000000000000000000000000000000000000000000000000010BF7B
:390F96000000000000000000000B00000000000000000000000000000000000000000000000000000000000000000000000000000000000000000000CA4D
:390FCF001000000000000000000000000000000000000000000000000000000000000000000000000000000000000000000000000000000000000080F861
:391008002000048000100002400008000120000480001000000000000000000000000000000000800010000240000800012000048000100002400080F9B2
:391041000000000000000000000000000000000000000000000000000000000000000000000000000000000000000000000000000000000000000080F9FD
:39107A002C00048000100002400008000120000480001000000000000000000000000000000000800010000240000800012000048000100002400010ACF1
:3910B30004000000000000000002000000000000000080000000000000000000000000000000000004000000000000000000000000000000000000B0E0EA
:3910EC002000048000100002000008000120000480000000000000000000000000000000000000000010000240000800012000048000100002400000B067
:391125000C000000000000000000000000000000000000000000000000000000000000000000000000000000000000000000000000000000000000209FC6
:39115E002000048000100002400008000120000480001000000000000000000000000000000000800010000240000800012000048000100002400080F95B
:391197000000000000000000000000000000000000000000000000000000000000000000000000000000000000000000000000000000000000000080F9A6
:3911D0000000000000000000000000000000000000000000000000000000000000000000000000000000000000000000000000000000000000000080F96D
:391209000000000000000000000000000000000000000000000000000000000000000000000000000000000000000000000000000000000000000080F933
:391242000000000000000000000000000000000000000000000000000000000000000000000000000800000000000000000000000000000000000000F972
:39127B000000000000000000000000000000000000000000000000000000000000000000000000000000000000000000000000000000000000000080F9C1
:3912B4000000000000000000000000000000000000000000000000000000000000000000000000000000000000000000000000000000000000000080F988
:3912ED000000000000000000000000000000000000000000000000000000000000000000000000000000000000000000000000000000000000000080F94F
:391326000800000000000000000000000000000000000000000000000000000000000000000000000000000000000000000000000000000000000000F98D
:39135F000000000000000000000000000000000000000000000000000000000000000000000000000000000000000000000000000000000000000080F9DC
:3913980002000000000000280080000000000000000000000000000000000000000000000000000080000000008000000000000000000000000000A0DBF7
:3913D1000000000000000008008000000000000000000000000000000000000000000000000000000000000000000200000000000000000000000000DB7E
:39140A000800000000000000000000000000000000000000000000000000000000000000000000000001000000000000000000000000000000000020CBB5
:391443000000000000000000000000000000000000000000000000000000000000000000000000000000000000000000000000000000000000000080F9F7
:39147C000000000000000000000000000000000000000000000000000000000000000000000000000000000000000000000000000000000000000080F9BE
:3914B5000000000000000000000000000000000000000000000000000000000000000000000000000000000000000000000000000000000000000080F985
:3914EE000000000000000000000000000000000000000000000000000000000000000000000000000000000000000000000000000000000000000080F94C
:391527000000000000000000000000000000000000000000000000000000000000000000000000000000000000000000000000000000000000000080F912
:391560000000000000000000000000000000000000000000000000000000000000000000000000000000000000000000000000000000000000000080F9D9
:391599000000000000000000000000000000000000000000000000000000000000000000000000000000000000000000000000000000000000000080F9A0
:3915D2000000000000000000000200000000000000000000000000000000000000000000000000000000000000000000000000000000000000000080DB83
:39160B00000000000000000000C000000000000000000000000000000000000000000000000000000000000000000000000000000000000000000080F571
:391644000000000000000000000000000000000000000000000000000000000000000000000000000000000000000000000000000000000000000080F9F4
:39167D000200000000000000000000000000000000000000000000000000000000000000000000000000000000000000000000000000000000000080DBD7
:3916B6000000000000000000000000000000000000020000000000000000000000000000000000000000000000000000000000000000000000000080FB7E
:3916EF000000000000000000000000000000000080000000000000000000000000000000000000000000000000000000000000000000000000000088F1C9
:391728000000000000000028000002000000000000100000000000000000000000000000000000000000000000000000000000000000000000000000E36B
:391761000000000000000008000000000000000000000000000000000000000000000000000000000000000000000000000000000000000000000000F156
:39179A000000000000000000000000000000000000000000000000000000000000000000000000000000000000000000000000000000000000000080F99D
:3917D3000000000000000000000002000000000000000000000000000000000000000000000000000000000000000000000000000000000000000080D982
:39180C000000000000000000000002000000000000001000000000000000000000000000000000000000000000000000000000000000000000000080D839
:391845000000000000000000000000000000000000000000000000000000000000000000000000000000000000000000000000000000000000000080F9F1
:39187E000000000000000000000000000000000000000000000000000000000000000000000000000000000000000000000000000000000000000080F9B8
:3918B7001000000000000000000000000000000000000000000000000000000000000000000000000000000000000000000000000000000000000028D2EE
:3918F0000400000000000000000000000000000000000000000000000000000000000000000000000000000000000000000000000000000000000080BD7E
:391929000000000000000000400000000000000000000000000000000000000000000000000000000000000000000000000000000000000000000080B90C
:391962000000000000000000000000000000000000000000000000000000000000000000000000000000000000000000000000000000000000000080F9D3
:39199B000000000000000000000000000000000000000000000000000000000000000000000000000000000000000000000000000000000000000080F99A
:3919D4000000000000000000000000000000000000000000000000000000000000000000000000000000000000000000000000000000000000000080F961
:391A0D000000000000000000000000000000000000000000000000000000000000000000000000000000000000000000000000000000000000000080F927
:391A46000000000000000000000000000000000000000000000000000000000000000000000000000000000000000000000000000000000000000080F9EE
:391A7F00000000000000000000000000000000000000000000000000000000000000000000000000000000000000000000A008000000000000000000FB8B
:391AB8000000000000000000000000000000000000000000000000000000000000000000000000000000000000000000000081000000000000000000E98B
:391AF100000000000000000000000000000000000000000000000000000000000000000000000000000000000000000000E000000000000000000080F765
:391B2A000000000000000000000000000000000000000000000000000000000000000000000000000000000000000000002001000000000000000080EBF6
:391B63000000000000000000000000000000000000000000000000000000000000000000000000000000000000000000008000000000000000000080F158
:391B9C000000000000000000000000000000000000000000000000000000000000000000000000000000000000000000006001000000000000000080EF40
:391BD5000000000000000000000000000000000000000000000000000000000000000000000000000000000000000000008000000000000000000080F1E6
:391C0E000000000000000000000000000000000000000000000000000000000000000000000000000000000000000000000001000000000000000080E933
:391C470000000000000000000000000000000000000000000000000000000000000000000000000000000000000000000000000000000000000000C0BDE7
:391C80000000000000000000000000000000000000000000000000000000000000000000000000000000000000000000000000000000000000000080F9B2
:391CB9000000000000000000000000000000000000000000000000000000000000000000000000000000000000000000000000000000000000000080F979
:391CF2000800000000000000000000000000000000000000000000000000000000000000000000000000000000000000000000000000000000000030CAB7
:391D2B000000000000000000000000000000000000000000000000000000000000000000000000000000000000000000000000000000000000000090E807
:391D64000000000000000000000000000000000000000000000000000000000000000000000000000000000000000000000000000000000000000080F9CD
:391D9D0004000000000000000000000000000000000000000000000000000000000000000000000000000000000000000000000000000000000000B08ECB
:391DD6000000000000000000000000000000000000000000000000000000000000000000000000000000000000000000000000000000000000000080F95B
:391E0F000000000000000000000000000000000000000000000000000000000000000000000000000000000000000000000000140000000000000080ED19
:391E48000000000000000000000000000000000000000000000000000000000000000000000000000000000000000000000000202000000000000080DBC6
:391E810000000000000000000000000000000000000000000000000000000000000000000000000000000000000000000000001C0000000000000080E5A7
:391EBA0004000000000000000000000000000000000000000000000000000000000000000000000000000000000000000000002400000000000000A0BB6C
:391EF3000C00000000000000000000000000000000000000000000000000000000000000000000000000000000000000000000100000000000000000ADED
:391F2C0000000000000000000000000000000000000000000000000000000000000000000000000000000000000000000000002C0000000000000080D5FB
:391F65000800000000000000000000000000000000000000000000000000000000000000000000000000000000000000000000100000000000000010F823
:391F9E000000000000000000000000000000000000000000000000000000000000000000000000000000000000000000000000200000000000000080D991
:391FD70000000000000000000000000000000000000000000000000000000000000000000000000000000000000000000000000000000000000000C0BD54
:392010000000000000000000000000000000000000000000000000000000000000000000000000000000000000000000000000000000000000000080F91E
:392049000000000000000000000000000000000000000000000000000000000000000000000000000000000000000000000000000000000000000080F9E5
:392082000800000000000000000000000000000000000000000000000000000000000000000000000000000000000000000000000000000000000030CA23
:3920BB000000000000000000000000000000000000000000000000000000000000000000000000000000000000000000000000000000000000000090E874
:3920F4000000000000000000000000000000000000000000000000000000000000000000000000000000000000000000000000000000000000000080F93A
:39212D0004000000000000000000000000000000000000000000000000000000000000000000000000000000000000000000000000000000000000B08E37
:392166000000000000000000000000000000000000000000000000000000000000000000000000000000000000000000000000000000000000000080F9C7
:39219F000000000000000000000000000000000000000000000000000000000000000000000000000000000000000000000000000000000000000080F98E
:3921D8000000000000000000000000000000000000000000000000000000000000000000000000000000000000000000000000000000000000000080F955
:392211000000000000000000000000000000000000000000000000000000000000000000000000000000000000000000000000000000000000000080F91B
:39224A0004000000000000000000000000000000000000000000000000000000000000000000000000000000000000000000000000000000000000A09F18
:392283000C00000000000000000000000000000000000000000000000000000000000000000000000000000000000000000000000000000000000000BD59
:3922BC000000000000000000000000000000000000000000000000000000000000000000000000000000000000000000000000000000000000000080F970
:3922F5000800000000000000000000000000000000000000000000000000000000000000000000000000000000000000000000000000000000000010E8B0
:39232E000000000000000000000000000000000000000000000000000000000000000000000000000000000000000000000000000000000000000080F9FD
:392367000000000000000000402104000000000000000000000000000000000000000000000000000000000000000000000000000000000000000080EA6E
:3923A0000000000000000000000200000000000000000000000000000000000000000000000000000000000000000000000000000000000000000080DBA7
:3923D9000000000000000000C00100000000000000000000000000000000000000000000000000000000000000000000000000000000000000000000A06A
:3924120008000000000000004002000000000000000000000000000000000000000000000000000000000000000000000000000000000000000000108AAD
:39244B0000000000000000000001000000000000000000000000000000000000000000000000000000000000000000000000000000000000000000B0DBCC
:392484000000000000000000C0020000000000000000000000000000000000000000000000000000000000000000000000000000000000000000000093CA
:3924BD0004000000000000000001000000000000000000000000000000000000000000000000000000000000000000000000000000000000000000A08EB3
:3924F6000000000000000000000200000000000000000000000000000000000000000000000000000000000000000000000000000000000000000080DB50
:39252F001000000000000000000000000000000000000000000000000000000000000000000000000000000000000000450400000000000000000080F9A1
:392568000000000000000000000000000000000000000000000000000000000000000000000000000000000000000000080000000000000000000080F1C1
:3925A1000000000000000000000000000000000000000000000000000000000000000000000000000000000000000000070000000000000000000080FE7C
:3925DA000C0000000000000000000000000000000000000000000000000000000000000000000000000000000000000009000000000000000000002096FD
:392613000400000000000000000000000000000000000000000000000000000000000000000000000000000000000000040000000000000000000080B94D
:39264C0000000000000000000000000000000000000000000000000000000000000000000000000000000000000000000B0000000000000000000080F2D8
:392685000C00000000000000000000000000000000000000000000000000000000000000000000000000000000000000040000000000000000000010A854
:3926BE000000000000000000000000000000000000000000000000000000000000000000000000000000000000000000080000000000000000000080F16A
:3926F70000000000000000000000000000000000000050440000000000000000000000000000000000504800000000000000000000000000004001C0F08D
:392730000000000000000000000000000000000000008000000000000000000000000000000000000080000000000000000000000000000000000202F379
:392769000000000000000000000000000000000000007000000000000000000000000000000000000070000000000000000000000000000000C00100D0C6
:3927A20008000000000000000000000000000000000090000000000000000000000000000000000000900000000000000000000000000000004002B0B034
:3927DB000000000000000000000000000000000000004000000000000000000000000000000000000040000000000000000000000000000000000190B9FB
:39281400000000000000000000000000000000000000B0000000000000000000000000000000000000B0000000000000000000000000000000C00280AB3E
:39284D0004000000000000000000000000000000000040000000000000000000000000000000000000400000000000000000000000000000000001B0DF3E
:392886000000000000000000000000000000000000008000000000000000000000000000000000000080000000000000000000000000000000000200D344
:3928BF0010000000000000000000000000000000000000000000000000000000000000000000000000000000000000000000000000000000000000C0BC54
:3928F8002000048000100002400008000120000480001000000000000000000000000000000000800010000240000800012000048000100002400080F9AA
:392931000000000000000000000000000000000000000000000000000000000000000000000000000000000000000000000000000000000000000080F9F4
:39296A002C000480001000024000080001200004800010000000000000000000000000000000008000100002400008000120000480001000024000308EE6
:3929A30004000000000000000002000000000000000080000000000000000000000000000000000000800000000000000800012000000000000002109C1E
:3929DC002000048000100002000008000120000480000000000000000000000000000000000000800000000240000800000000008000100002000080EE95
:392A15000C000000000000000000000000000000000000000000000000000000000000000000000000000000000000000000000000000000000000308EBE
:392A4E002000048000100002400008000120000480001000000000000000000000000000000000800010000240000800012000048000100002400080F952
:392A87000000000000000000000000000000000000000000000000000000000000000000000000000000000000000000000000000000000000000080F99D
:392AC0000000000000000000000000000000000000004000000000000000000000000000000000000000000000000000000000000000000000000080FD20
:392AF9000000000000000000000000000000000000000000000000000000000000000000000000000000000000000000000000000000000000000080F92B
:392B320000000000000000000000000000000000000000000000000000000000000000000000000000000000000000000000000000000000000000C0BDED
:392B6B000000000000000000000000000000000000000000000000000000000000000000000000000000000000000000000000000000000000000090E8B9
:392BA4000000000000000000000000000000000000000000000000000000000000000000000000000000000000000000000000000000000000000080F97F
:392BDD000000000000000000000000000000000000000000000000000000000000000000000000000000000000000000000040100000000000000080AD42
:392C16000000000000000000000000000000000000000000000000000000000000000000000000000000000000000000000000000000000000000080F90C
:392C4F000000000000000000000000000000000000000000000000000000000000000000000000000000000000000000000080080000000000000000F1D3
:392C88000000000000000008000000000000000000040000000000000000000000000000000000000000000000000000000000000000000000000000F512
:392CC1000000000000000010000000000000000000000000000000000000000000000000000000000000000000000000000000000000000000000080E862
:392CFA000000000000000000000000000000000000040000000000000000000000000000000000000000000000000000000000000000000000000090EC21
:392D33000000000000000000000000000000000000000000000000000000000000000000000000000000000000000000000000000000000000000080F9EE
:392D6C000000000000000000000000000000000000000000000000000000000000000000000000000000000000000000000000000000000000000080F9B5
:392DA5000000000000000000000000000000000000000000000000000000000000000000000000000000000000000000000000000000000000000080F97C
:392DDE000000000000000000000002000000000000000000000000000000000000000000000000000000000000000000000000000000000000000080D961
:392E17000000000000000000000000000000000000000000000000000000000000000000000000000000000000000000000000000000000000000080F909
:392E50000000000000000000000000000000000000000000000000000000000000000000000000000000000000000000000000000000000000000080F9D0
:392E89000000000000000000000000000000000000000000000000000000000000000000000000000000000000000000000001000000000000000080E9A6
:392EC2000000000000000000000000000000000000000000000000000000000000000000000000000000000000000000000000000000000000000080F95E
:392EFB000000000000000000000000000000000000000000000000000000000000000000000000000000000000000000000000000000000000000080F925
:392F34000000000000000000000000000000000000000000000000000000000000000000000000000020000000000000040000000000000000000080DFE1
:392F6D000200000000000000000000000000000000000000000000000000000000000000000000000000000000000000000000000000000000000008D34E
:392FA6000000000000000000000000000000000000000000000000000000000000000000000000000000000000002000000000000000000000000080FB57
:392FDF000A00000000000000000000000000000000000000000000000000000000000000000000000000000000000800000000000000000000000080DB4C
:3930180008000000000000000080000000000000000A0000000000000000000000000000000000000900000000000001000000000002000028000000F0C9
:393051000000000000000000008000000000000000020000000000000000000000000000000000000000000000000000000000000001000008000000EBD0
:39308A000000000000000000000000000000000000000000000000000000000000000000000000000000000000000000000000000000000000000080F994
:3930C3000000000000000000000000000000000000000000000000000000000000000000000000000000000000000000000000000000000000000080F95B
:3930FC000000000000000000000000000000000000000000000000000000000000000000000000000000000000000000000000001000000000000080F813
:393135000000000000000000000000000000000000000000000000000000000000000000000000000000000000000000000000000000000000000080F9E8
:39316E000000000000000000000000000000000000000000000000000000000000000000000000000000000000000000000000000000000000000081E9BE
:3931A70000000000000000000000000000000000000000000000000000000000000000000000000000000000000000000000000000000000000000C0BD72
:3931E0000000000000000000000000000000000000000000000000000000000000000000000000000000000000000000000000000000000000000080F93D
:393219000000000000000000000000000000000000000000000000000000000000000000000000000000000000000000000000000000000000000080F903
:393252000800000000000000000000000000000000000000000000000000000000000000000000000000000000000000000000000000000000000000F942
:39328B000000000000000000000000000000000000000000000000000000000000000000000000000000000000000000000000000000000000000080F991
:3932C4000000000000000000000000000000000000000000000000000000000000000000000000000000000000000000000000000000000000000080F958
:3932FD000000000000000000000000000000000000000000000000000000000000000000000000000000000000000000000000000000000000000080F91F
:393336000000000000000000000000000000000000000000000000000000000000000000000000000000000000000000000000000000000000000090E8E6
:39336F0000000000000000000000000000A0040200000000000000000000000000000000000000000000000000000000000000000000000000000000FD82
:3933A8000000000000000000000000000000010000000000000000000000000000000000000000000000000000000000000000000000000000000080F873
:3933E10000000000000000000000000000E00000000000000000000000000000000000000000000000000000000000000000000000000000000000009F34
:39341A000000000000000000000000000020010000000000000000000000000000000000000000000000000000000000000000000000000000000080DAFE
:393453000000000000000000000000000080000000000000000000000000000000000000000000000000000000000000000000000000000000000000F9C7
:39348C0000000000000000000000000000600100000000000000000000000000000000000000000000000000000000000000000000000000000000809E88
:3934C5000000000000000000000000000080000000000000000000000000000000000000000000000000000000000000000000000000000000000000F955
:3934FE000000000000000000000000000000010000000000000000000000000000000000000000000000000000000000000000000000000000000080F81C
:393537001000000000000000000000000000000000000000000000000000000000000000000000000000000000000000000000000000000000000080F8D3
:393570000000000000000000000000000000000000000000000000000000000000000000000000000000000000000000000000000000000000000080F9A9
:3935A9000000000000000000000000000000000000000000000000000000000000000000000000000000000000000000000000000000000000000080F970
:3935E2000C000000000000000000000000000000000000000000000000000000000000000000000000000000000000000000000000000000000000209FE5
:39361B000400000000000000000000000000000000000000000000000000000000000000000000000000000000000000000000000000000000000080BD35
:393654000000000000000000000000000000000000000000000000000000000000000000000000000000000000000000000000000000000000000080F9C4
:39368D000C00000000000000000000000000000000000000000000000000000000000000000000000000000000000000000000000000000000000010AC3C
:3936C6000000000000000000000000000000000000000000000000000000000000000000000000000000000000000000000000000000000000000080F952
:3936FF0010000080420800000000000000000000000000000000000000000000000000000000000000000000000000000020000000000000000000C0DAFE
:393738000000000004000000000000000000000000000000000000000000000000000000000000000000000000000000000000000000000000000080B91B
:393771000000008003000000000000000000000000000000000000000000000000000000000000000000000000000000000000000000000000000080C15B
:3937AA000C00008004000000000000000000000000000000000000000000000000000000000000000000000000000000000000000000000000000030C660
:3937E3000400000002000000000000000000000000000000000000000000000000000000000000000000000000000000000008000000000000000010840B
:39381C000000008005000000000000000000000000000000000000000000000000000000000000000000000000000000006040000000000000000080E3EB
:393855000C00000002000000000000000000000000000000000000000000000000000000000000000000000000000000008001000000000000000030B6C5
:39388E000000000004000000000000000000000000000000000000000000000000000000000000000000000000000000008011010000000000000080B13A
:3938C700000000000000000000000000000000000000000000000000000000000000000000000000000000000000000000A000010000000000000080F2B5
:393900000000000000000000000000000000000000000000000000000000000000000000000000000000000000000000000001000000000000000080E924
:39393900000000000000000000000000000000000000000000000000000000000000000000000000000000000000000000E000000000000000000080F7FE
:393972000800000000000000000000000000000000000000000000000000000000000000000000000000000000000000002001000000000000000020C90A
:3939AB000000000000000000000000000000000000000000000000000000000000000000000000000000000000000000008000000000000000000080F1F2
:3939E4000000000000000000000000000000000000000000000000000000000000000000000000000000000000000000006001000000000000000080EFDA
:393A1D000400000000000000000000000000000000000000000000000000000000000000000000000000000000000000008000000000000000000090A4B8
:393A56000000000000000000000000000000000000000000000000000000000000000000000000000000000000000000000001000000000000000080E9CD
:393A8F00000000000000000000000000000000000000000000000000000000000000000000000000000000000000000000A090000000000000000000E2EC
:393AC8000000000000000000000000000000000000000000000000000000000000000000000000000000000000000000000001000000000000000080E95B
:393B0100000000000000000000000000000000000000000000000000000000000000000000000000000000000000000000E000000000000000000080F734
:393B3A000400000000000000000000000000000000000000000000000000000000000000000000000000000000000000002001000000000000000090BEDF
:393B73000C0000000000000000000000000000000000000000000000000000000000000000000000000000000000000000800000000000000000003086D7
:393BAC000000000000000000000000000000000000000000000000000000000000000000000000000000000000000000006001000000000000000080EF10
:393BE5000800000000000000000000000000000000000000000000000000000000000000000000000000000000000000008000000000000000000020D32C
:393C1E000000000000000000000000000000000000000000000000000000000000000000000000000000000000000000000001000000000000000080E903
:393C5700000000000000000000000000000000000000000000000000000000000000000000000000000000000000000000A084000000000000000000B35D
:393C90000000000000000000000000000000000000000000000000000000000000000000000000000000000000000000000001000000000000000080E991
:393CC900000000000000000000000000000000000000000000000000000000000000000000000000000000000000000000E000000000000000000080F76B
:393D02000800000000000000000000000000000000000000000000000000000000000000000000000000000000000000002001000000000000000020C976
:393D3B000000000000000000000000000000000000000000000000000000000000000000000000000000000000000000008000000000000000000080F15E
:393D74000000000000000000000000000000000000000000000000000000000000000000000000000000000000000000006001000000000000000080EF46
:393DAD000400000000000000000000000000000000000000000000000000000000000000000000000000000000000000008000000000000000000090A425
:393DE6000000000000000000000000000000000000000000000000000000000000000000000000000000000000000000000001000000000000000080E93A
:393E1F0000000000000000000000000000000000802252880000000000000000000000000000008002080000000000000020000000000000000000409074
:393E58000000000000000000000000000000000000048000000000000000000000000000000000000400000000000000000000000000000000000080B178
:393E91000000000000000000000000000000000080037000000000000000000000000000000000800300000000000000000000000000000000000080C63C
:393ECA0004000000000000000000000000000000800490000000000000000000000000000000008004000000000000000000000000000000000000B0CFA4
:393F03000C000000000000000000000000000000000240000000000000000000000000000000000002000000000000000000440000000000000000108C55
:393F3C00000000000000000000000000000000008005B000000000000000000000000000000000800500000000000000006000000000000000000080AC06
:393F75000800000000000000000000000000000000024000000000000000000000000000000000000200000000000000008001000000000000000030F620
:393FAE000000000000000000000000000000000000048000000000000000000000000000000000000400000000000000008011010000000000000080B987
:393FE7001000000000000000000000000000000000000000000000000000000000000000000000000000000000000000002000000000000000000080FAF7
:394020000000000000000000000000000000000000000000000000000000000000000000000000000000000000000000000000000000000000000080F9EE
:394059000000000000000000000000000000000000000000000000000000000000000000000000000000000000000000000000000000000000000080F9B5
:394092000C000000000000000000000000000000000000000000000000000000000000000000000000000000000000000000000000000000000000209F2A
:3940CB000400000000000000000000000000000000000000000000000000000000000000000000000000000000000000000048000000000000000000F17F
:394104000000000000000000000000000000000000000000000000000000000000000000000000000000000000000000006000000000000000000080FFA3
:39413D000C00000000000000000000000000000000000000000000000000000000000000000000000000000000000000008001000000000000000010B4F8
:394176000000000000000000000000000000000000000000000000000000000000000000000000000000000000000000008011010000000000000080F10D
:3941AF0000000000000000000000000000000000000000000000000000000000000000000000000000000000000000000000000000000000000000C0BD5A
:3941E8002000048000100002400008000120000480001000000000000000000000000000000000800010000240000800012000048000100002400080F9A1
:394221000000000000000000000000000000000000000000000000000000000000000000000000000000000000000000000000000000000000000080F9EB
:39425A0024000480001000024000080001200004800010000000000000000000000000000000008000100002400008000120000480001000024000B08E65
:394293000C00000004000000000000000000010000048000000000000000000000000000000000000400000000000000000001000000000000000010B593
:3942CC002000040000100002400008000100000400000000000000000000000000000000000000000010000240000800010000048000100002400080D8AD
:394305000800000000000000000000000000000000000000000000000000000000000000000000000000000000000000000000000000000000000030CA7D
:39433E002000048000100002400008000120000480001000000000000000000000000000000000800010000240000800012000048000100002400080F949
:394377000000000000000000000000000000000000000000000000000000000000000000000000000000000000000000000000000000000000000080F994
:3943B0000000000000000000000000000000000000000002000000000000000000000000000000000000000000000000000000000000000000000080D979
:3943E9000000000000000000000000000000000000000000000000000000000000000000000000000000000000000000000000000000000000000080F922
:394422000800000000000000000000000000000000000000000000000000000000000000000000000000000000000000000000000000000000000000F960
:39445B000000000000000000000000000000000000000000000000000000000000000000000000000000000000000000000000000000000000000080F9AF
:394494000000000000000000000000000000000000000000000000000000000000000000000000000000000000000000000000000000000000000080F976
:3944CD0000000000000000000000000000004000000000000000000000000000000000000000000000000000000000000000000000000000000000A09B3B
:394506000000000000000000000000000000000000000000000000000000000000000000000000000000000000000000000000000000000000000080F903
:39453F000000000000000000000000000000800000000000000000000000000000000000000000000000000000000000000000000000000000000000F1D2
:394578001000000000002800000000000000000004000000000000000000000000000000000000000000000000000000000000000A0000000000008098AC
:3945B1000000000000002000000000000000000000000000000000000000000000000000000000000000000000000000000000000800000000000000FBAE
:3945EA000000000000000000000000000000000020000000000000000000000000000000000000000000000000000000000000000000000000000080DB1D
:394623000000000000000000000000000000000000000000000000000000000000000000000000000000000000000000000000000000000000000080F9E5
:39465C000000000000000000000000000000000000000000000000000000000000000000000000000000000000000000000000000000000000000080F9AC
:394695000000000000000000000000000000000000000000000000000000000000000000000000000000000000000000000000000000000000000080F973
:3946CE000000000000000000000000000000000000000000000000000000000000000000000000000000000000000000000000000000000000000080F93A
:394707000000000000000000000000000000000000000000000000000000000000000000000000000000000000000000000000000000000000000080F900
:394740000000000000000000000000000000000000000000000000000000000000000000000000000000000000000000000000000000000000000080F9C7
:394779000000000000000000000000000000000000000000000000000000000000000000000000000000000000000000000000000000000000000080F98E
:3947B2000000000000000000000000000000000000020000000000000000000000000000000000000000000000000000000000000000000000000080FB51
:3947EB000000000000000000000000000000000200000000000000000000000000000000000000000000000000000000008000000000000000000080D3C0
:394824000000000000000000000000000000000000000000000000000000000000000000000000000000000000000000004000000000000000000080FD9E
:39485D000000000000000000000000000000000000000000000000000000000000000000000000000000000000000000000000000000000000000080F9A9
:394896000000000000000000000000000000000000020000000000000000000000000000000000000000000000000000000000000000000000000080FB6C
:3948CF000200000000000000000000000000000080008002000000000000000000000000000000000000000000000000000000000000000000000088FB29
:3949080000000000000000000000000000000000000000000000000000000000000000000000000000002800000000000080000052004000000400289080
:394941000000000000000000000000000000000000000000000000000000000000000000000000000000200000000000008000000000200000020080F308
:39497A000000000000000000000000000000000000000000000000000000000000000000000000000000000000000000000000000000000000000080F98B
:3949B3000000000000000000000000000000000000000000000000000000000000000000000000000000000000000000000000000000000000000080F952
:3949EC000000000000040000000000000000000000000000000000000000000000000000000000000000000000000000000000000000000000000080FD11
:394A25000000000000000000000000000000000000000000000000000000000000000000000000000000000000000000000040000000000000000080BDDB
:394A5E000000000000000000000000000000000000000000000000000000000000000000000000000000000000000000000000000000000000000080F9A6
:394A97000A00000000000000000000000000000000000000000000000000000000000000000000000000000000000000000000000000000000000000DB01
:394AD0000400000000000000000000000000000000000000000000000000000000000000000000000000000000000000000000000000000000000080BD6C
:394B09000000000000000000000000000000000000000000000000000000000000000000000000000000000000000000000000000000000000000080F9FA
:394B42000000000000000000000000000000000000000000000000000000000000000000000000000000000000000000000000000000000000000008F141
:394B7B000000000000000000000000000000000000000000000000000000000000000000000000000004000000000000000000000000000000000080B9C4
:394BB4000000000000000000000000000000000000000000000000000000000000000000000000000000000000000000000000000000000000000080F94F
:394BED0000000000000000000000000000000000000000000000000000000000000000000000000000000000000000000000040000000000000000A09B50
:394C26000000000000000000000000000000000000000000000000000000000000000000000000000000000000000000000000000000000000000080F9DC
:394C5F000000000000000000005000000000000000000000000000000000000000000000000000000000000000000000000000000500000000000080A99E
:394C98000000000000000000004000000000000000002010000000000000000000000000000000000000000000000000000000000400000000000080AA45
:394CD1000000000000000000000000000000000000000000000000000000000000000000000000000000000000000000000000000000000000000080F931
:394D0A000000000000000000000000000000000000000000000000000000000000000000000000000000000000000000000000000000000000000080F9F7
:394D4300001240024800092001748004900012400248001D000000000000000000000000000000004800092001248004900012400754800AA002240099F0
:394D7C00000C8001300006C00098000360000C800130002600000000000000000000000000000000300006C00018000360000C808926D00440161800C6E9
:024DB500FFFFFE
:00000001FF
