:020000040000FA
:39000000FFFF62FF3600FFFFFFFFFFFFFFFFFFFFFFFFFFFFFFFFFFFFFFFFFFFFFFFFFFFFFFFFFFFFFFFFFFFFFFFFFFFFFFFFFFFFFFFFFFFFFFFFFFFFFF65
:39003900000C8001304006C00018000360024C800932000600000000000000000000000000000000300006C00018000360000C8001300006C0001800D362
:390072000012400248800B2001248004D0013A40075C0009000000000000000000000000000000004800092001248004900012400248000920012400AB6F
:3900AB000000000000000000000000000000000000000000000000000000000000000000000000000000000000000000000000000000000000000080F9A3
:3900E4000000000000000000000000000000000000000000000000000000000000000000000000000000000000000000000000000000000000000080F96A
:39011D000000000000800000000000000101600004040000000000000000000000000000000000000000000000000000000000000000000000000000D4EB
:390156000000000000000300000000004000080009110000000000000000000000000100000000000000000000000000000000000000000000000000DE2C
:39018F00200034C240040000000028040100000489001008000000000000000000000000000000000000000000000000000000000000000000000080CBC0
:3901C800800120000000000000004040000800300000C020000000000000000000000000000000000000000000000000000000000000000000000000E0E5
:390201008081300802000000000020000008000000064100000000000000000000000000000000000000000000000000000000000000000000000000C852
:39023A008011B0002408000000004082800000B04040C084000000000000000000000000000000000000000000000000000000000000000000000000A7C1
:39027300800100064001000000000004000800300640C488000000000000000000000000000000000000000000000000000000000000000000000000AD0F
:3902AC00E0010D8001000000000018200300002C80013000000000000000000000000000000000000000000000000000000000000000000000000000BCD6
:3902E500800100000000000000000000000000300006C400000000000000000000000000000000000000000000000000000000000000000000000080AC39
:39031E00809100410402000000004011481000B00846C044000000000000000000000000000000000000000000000000000000000000000000000000AAF9
:390357000000B48810120082080068008920081491001004000000000000000000000000000000000000000000000000000000000000000000000080BE75
:390390000000300000000000000060000084000100060020000000000000000000000000000000000000000000000000000000000000000000000000DA1F
:3903C9000000300004C44000000060400C0400101006C2400000000000000000000000000000000000000000000000000000000000000000000000809FCC
:390402000800204142000000090060028C000082004680000000000000000000000000000000000000000000000000000000000000000000000000A0CF68
:39043B000000300610081010080060102000308000460418000000000000000000000000000000000000000000000000000000000000000000000000F977
:3904740000003C8001F0000E000078000364002CA0073000000000000000000000000000000000000000000000000000000000000000000000000000C7EB
:3904AD000400002004004008000000000C0000100006C080000000000000000000000000000000000000000000000000000000000000000000000010AD87
:3904E6000000800046C10248200060228C0208220946C202000000000000000000000000000000000000000000000000000000000000000000000000821D
:39051F00B005B48844040082080008248520000492061000000000000000000000000000000000000000000000000000000000000000000000000040DB48
:390558008081000002000000000000000808000000060020000000000000000000000000000000000000000000000000000000000000000000000000ED44
:39059100800100080600000000002010040000000000C200000000000000000000000000000000000000000000000000000000000000000000000000D9D3
:3905CA000C0902010601000009006004080284001146C0040100000000000000000000000000000000000000000000000000000000000000000000B0A969
:3906030084458020440100000800004440101000004604240000000000000000000000000000000000000000000000000000000000000000000000109650
:39063C00E0012C80030000060000180003E0410CA0073000000000000000000000000000000000000000000000000000000000000000000000000080FC54
:390675000C000100040000080000600000040001000600000000000000000000000000000000000000000000000000000000000000000000000000B0F622
:3906AE00000400220602004020000014480004A010468288000000000000000000000000000000000000000000000000000000000000000000000000F431
:3906E700A001B480200000820800080021A4050489001044000000000000000000000000000000000000000000000000000000000000000000000080F830
:390720008001301000020000000000000080810000000000000000000000000000000000000000000000000000000000000000000000000000000080DB81
:390759008081200002020000000000000080010120000000000000000000000000000000000000000000000000000000000000000000000000000080D14F
:3907920088111009460000000900000A40900500000000480000000000000000000000000000000000000000000000000000000000000000000000A0A8BE
:3907CB008011A2204000000008000021208211000A464840000000000000000000000000000000000000000000000000000000000000000000000080A886
:39080400E0013C800104000E000018000360410C8007B000000000000000000000000000000000000000000000000000000000000000000000000080EAA2
:39083D00040020000600001000006000008801100000410000000000000000000000000000000000000000000000000000000000000000000000009086F8
:3908760080911022A6000048200000214880053204400002010000000000000000000000000000000000000000000000000000000000000000000000CEC3
:3908AF00B00104800010008208000800812004348000D000000000000000000000000000000000000000000000000000000000000000000000000000AB65
:3908E800800100000000000000000000000880300000C000000000000000000000000000000000000000000000000000000000000000000000000080EE70
:3909210000803008000000000000000000000001000600400000000000000000000000000000000000000000000000000000000000000000000000809A84
:39095A008C1100010000000009000084400204000006C0080000000000000000000000000000000000000000000000000000000000000000000000109382
:390993008401000140C1480008000000441010300426C008000000000000000000000000000000000000000000000000000000000000000000000030A6F8
:3909CC00E0013DA001F00006000018200B60403C8007F280000000000000000000000000000000000000000000000000000000000000000000000080990C
:390A05008C0100000600400800000000000000300006C2000000000000000000000000000000000000000000000000000000000000000000000000A0C085
:390A3E00809130040602024820006042488104321246C0480000000000000000000000000000000000000000000000000000000000000000000000008A3D
:390A770030000491000000820800088109A00504802211000000000000000000000000000000000000000000000000000000000000000000000000808FFA
:390AB0000000000000000000000000000488810000000000000000000000000000000000000000000000000000000000000000000000000000000000BC44
:390AE9000080000000000000000000100880013110000180000000000000000000000000000000000000000000000000000000000000000000000080FA7F
:390B22000C100012000000000900000444840580002000080000000000000000000000000000000000000000000000000000000000000000000000208545
:390B5B000410021020000010080000208882110001400482000000000000000000000000000000000000000000000000000000000000000000000000B948
:390B940060002C8001010006000018000FE0410C8807F000000000000000000000000000000000000000000000000000000000000000000000000080A71A
:390BCD000C0000000602000000000000088800301000C000000000000000000000000000000000000000000000000000000000000000000000000090D8E3
:390C0600809180401600004020004082048005320240C110000000000000000000000000000000000000000000000000000000000000000000000080ABB3
:390C3F002000048206000082080008000D20000480061000000000000000000000000000000000000000000000000000000000000000000000000080A156
:390C78000000000806000000000060000C00000000060000000000000000000000000000000000000000000000000000000000000000000000000080BD86
:390CB1000080000006020000000000200C80010000000080000000000000000000000000000000000000000000000000000000000000000000000080FED7
:390CEA000810200540000000090060040090010000000008000000000000000000000000000000000000000000000000000000000000000000000010BB83
:390D23000010020146000008080060048C8141800040C0040000000000000000000000000000000000000000000000000000000000000000000000309731
:390D5C00E0010CA007040006000018100FE0010CA001F480000000000000000000000000000000000000000000000000000000000000000000000080C047
:390D95000400000006000000000060000088813000000120000000000000000000000000000000000000000000000000000000000000000000000020A899
:390DCE00009080204602004020006042208009B04040C00800000000000000000000000000000000000000000000000000000000000000000000008084CD
:390E0700B001048020D000820800680001A0050480061022000000000000000000000000000000000000000000000000000000000000000000000000A594
:390E40008001002000C20000000000000080810000060000000000000000000000000000000000000000000000000000000000000000000000000000A669
:390E79008081001002020000000000000080010100064200000000000000000000000000000000000000000000000000000000000000000000000080F2EF
:390EB2000C100000460000000900002400800500204000440000000000000000000000000000000000000000000000000000000000000000000000A0E4CB
:390EEB008401004140001010080000444090108000460488000000000000000000000000000000000000000000000000000000000000000000000000AF7B
:390F2400E0010D800134000E0000180003E0410CA0073000000000000000000000000000000000000000000000000000000000000000000000000000C103
:390F5D008C01000006024008000000000C84010000060000000000000000000000000000000000000000000000000000000000000000000000000090D97E
:390F96008091A02016000240200000084C8005B24046C284000000000000000000000000000000000000000000000000000000000000000000000000E59D
:390FCF000000000000000000000000000000000000000000000000000000000000000000000000000000000000000000000000000000000000000080F970
:391008002000048000100002400008000120000480001000000000000000000000000000000000800010000240000800012000048000100002400080F9B2
:391041000000000000000000000000000000000000000000000000000000000000000000000000000000000000000000000000000000000000000080F9FD
:39107A002C00048000100002400008000120000480001000000000000000000000000000000000800010000240000800012000048000100002400010ACF1
:3910B30004000000000000000000000000000000000000000000000000000000000000000000000000000000000000000000000000000000000000B08EC2
:3910EC002000048000100002400008000120000480001000000000000000000000000000000000800010000240000800012000048000100002400080F9CE
:391125000C000000000000000000000000000000000000000000000000000000000000000000000000000000000000000000000000000000000000209FC6
:39115E002000048000100002400008000120000480001000000000000000000000000000000000800010000240000800012000048000100002400080F95B
:391197000000000000000000000000000000000000000000000000000000000000000000000000000000000000000000000000000000000000000080F9A6
:3911D0000000000000000000000000000000000000000000000000000000000000000000000000000000000000000000000000000000000000000080F96D
:391209000000000000000000000010000200000000000000000000000000000000000000000000000000000000000000000000000000000000000080CA50
:391242000A00008000000000000000200004002000100040000000000000000000000000000000000000000000000000000000000000000000000000E570
:39127B000000000000000000000000000000000000000000000000000000000000000000000000000000000000000000000000000000000000000080F9C1
:3912B40000000000000000000000100000000000000000000000000000000000000000000000000000000000000000000000000000000000000000A0CA87
:3912ED000040100000000008000000000080000000004100000000000000000000000000000000000000000000000000000000000000000000000080B07F
:391326000000000000000000000000000000000000000000000000000000000000000000000000000000000000000000000000000000000000000080F915
:39135F000085080000000004000000000440000000142200000000000000000000000000000000000000000000000000000000000000000000000000D575
:3913980080068006C010290804000000148090020090002A000000000000000000000000000000000000000000000000000000000000000000000080D9D2
:3913D1008000000000002008040000000480000000000020000000000000000000000000000000000000000000000000000000000000000000000080997A
:39140A000000000800010000000000000000000000000100000000000000000000000000000000000000000000000000000000000000000000000000E9B6
:391443000000000000000000000000000000000000000000000000000000000000000000000000000000000000000000000000000000000000000080F9F7
:39147C000000000000000000000000000000000000000000000000000000000000000000000000000000000000000000000000000000000000000080F9BE
:3914B50000200804000000040000404000010004000020100000000000000000000000000000000000000000000000000000000000000000000000809405
:3914EE000001042000100000000008000001000C00000000000000000000000000000000000000000000000000000000000000000000000000000080A358
:391527000000000000000000000000000000000000000000000000000000000000000000000000000000000000000000000000000000000000000080F912
:391560000000200000000000000080001000004000000001000000000000000000000000000000000000000000000000000000000000000000000000CC95
:391599000001200004000010000000001000000000048000000000000000000000000000000000000000000000000000000000000000000000000080953B
:3915D20080001000020000080000000004000100000240000000000000000000000000000000000000000000000000000000000000000000000000008A75
:39160B000000004002000000200000010400602200000000010000000000000000000000000000000000000000000000000000000000000000000080F943
:391644000000000000000000000000800000000000000000000000000000000000000000000000000000000000000000000000000000000000000000F1FC
:39167D00020000000040000000002010048040000802012000000000000000000000000000000000000000000000000000000000000000000000008094BF
:3916B6008000100002012008000100000000000000000000000000000000000000000000000000000000000000000000000000000000000000000000DB64
:3916EF002000048800248002400010200240800010018242000000000000000000000000000000000000000000000000000000000000000000000008B2AF
:39172800004160000A010200020DC00A20000110510681000000000000000000000000000000000000000000000000000000000000000000000000008771
:3917610000400000020100000001000000000010000201000000000000000000000000000000000000000000000000000000000000000000000000809FD9
:39179A008000100000000000040020100080000000024000000000000000000000000000000000000000000000000000000000000000000000000000D1BF
:3917D30000000000080000000000A0000000000100000000000000000000000000000000000000000000000000000000000000000000000000000080C2F2
:39180C000080004000000000000000000010008108000000000000000000000000000000000000000000000000000000000000000000000000000080FDCD
:391845000000040000480000000008000140001000001020000000000000000000000000000000000000000000000000000000000000000000000000CACB
:39187E000000091000200000000040000100001000000400000000000000000000000000000000000000000000000000000000000000000000000080C162
:3918B7000000000000000000000000200004000010000000000000000000000000000000000000000000000000000000000000000000000000000028A2FA
:3918F0000000000010000000000000000008000000000000000000000000000000000000000000000000000000000000000000000000000000000000E0C7
:391929001000000800040000000000000020000000000000000000000000000000000000000000000000000000000000000000000000000000000000DE6B
:391962000000000000000000000000012000000000000002000000000000000000000000000000000000000000000000000000000000000000000080DACF
:39199B0000000000000200000000008020080000400002C0000000000000000000000000000000000000000000000000000000000000000000000000DB8C
:3919D4000000000080000000000020000800000010800000000000000000000000000000000000000000000000000000000000000000000000000000C2E0
:391A0D000000012000000000000000000000000000000000000000000000000000000000000000000000000000000000000000000000000000000080FA05
:391A46000400000800000000000000000000000000002010000000000000000000000000000000000000000000000000000000000000000000000000AE7D
:391A7F000000000000000000000000000000000000000000000000000000000000000000000000000000000000000000000000000000000000000080F9B5
:391AB8000000000000000000000000000000000000000000000000000000000000000000000000000000000000000000000000000000000000000080F97C
:391AF1000000000000000000000000000000000000000000000000000000000000000000000000000000000000000000000000000000000000000080F943
:391B2A000000000000000000000000000000000000000000000000000000000000000000000000000000000000000000000000000000000000000080F909
:391B63000000000000000000000000000000000000000000000000000000000000000000000000000000000000000000000000000000000000000080F9D0
:391B9C000000000000000000000000000000000000000000000000000000000000000000000000000000000000000000000000000000000000000080F997
:391BD5000000000000000000000000000000000000000000000000000000000000000000000000000000000000000000000000000000000000000080F95E
:391C0E000000000000000000000000000000000000000000000000000000000000000000000000000000000000000000000000000000000000000080F924
:391C47000000000000000000000000000000000000000000000000000000000000000000000000000000000000000000000000000000000000000080F9EB
:391C80000000000000000000000000000000000000000000000000000000000000000000000000000000000000000000000000000000000000000080F9B2
:391CB9000000000000000000000000000000000000000000000000000000000000000000000000000000000000000000000000000000000000000080F979
:391CF2000800000000000000000000000000000000000000000000000000000000000000000000000000000000000000000000000000000000000020DBB6
:391D2B000000000000000000000000000000000000000000000000000000000000000000000000000000000000000000000000000000000000000080F906
:391D64000000000000000000000000000000000000000000000000000000000000000000000000000000000000000000000000000000000000000080F9CD
:391D9D000400000000000000000000000000000000000000000000000000000000000000000000000000000000000000000000000000000000000090ACCD
:391DD6000000000000000000000000000000000000000000000000000000000000000000000000000000000000000000000000000000000000000080F95B
:391E0F000000000000000000000000000000000000000000000000000000000000000000000000000000000000000000000000000000000000000080F921
:391E48000000000000000000000000000000000000000000000000000000000000000000000000000000000000000000000000000000000000000080F9E8
:391E81000000000000000000000000000000000000000000000000000000000000000000000000000000000000000000000000000000000000000080F9AF
:391EBA000800000000000000000000000000000000000000000000000000000000000000000000000000000000000000000000000000000000000020DBEC
:391EF3000000000000000000000000000000000000000000000000000000000000000000000000000000000000000000000000000000000000000080F93D
:391F2C000000000000000000000000000000000000000000000000000000000000000000000000000000000000000000000000000000000000000080F903
:391F65000400000000000000000000000000000000000000000000000000000000000000000000000000000000000000000000000000000000000090AC03
:391F9E000000000000000000000000000000000000000000000000000000000000000000000000000000000000000000000000000000000000000080F991
:391FD7000000000000000000000000000000000000000000000000000000000000000000000000000000000000000000000000000000000000000080F958
:392010000000000000000000000000000000000000000000000000000000000000000000000000000000000000000000000000000000000000000080F91E
:392049000000000000000000000000000000000000000000000000000000000000000000000000000000000000000000000000000000000000000080F9E5
:392082000800000000000000000000000000000000000000000000000000000000000000000000000000000000000000000000000000000000000020DB22
:3920BB000000000000000000000000000000000000000000000000000000000000000000000000000000000000000000000000000000000000000080F973
:3920F4000000000000000000000000000000000000000000000000000000000000000000000000000000000000000000000000000000000000000080F93A
:39212D000400000000000000000000000000000000000000000000000000000000000000000000000000000000000000000000000000000000000090AC39
:392166000000000000000000000000000000000000000000000000000000000000000000000000000000000000000000000000000000000000000080F9C7
:39219F000000000000000000000000000000000000000000000000000000000000000000000000000000000000000000000000000000000000000080F98E
:3921D8000000000000000000000000000000000000000000000000000000000000000000000000000000000000000000000000000000000000000080F955
:392211000000000000000000000000000000000000000000000000000000000000000000000000000000000000000000000000000000000000000080F91B
:39224A000800000000000000000000000000000000000000000000000000000000000000000000000000000000000000000000000000000000000020DB58
:392283000000000000000000000000000000000000000000000000000000000000000000000000000000000000000000000000000000000000000080F9A9
:3922BC000000000000000000000000000000000000000000000000000000000000000000000000000000000000000000000000000000000000000080F970
:3922F5000400000000000000000000000000000000000000000000000000000000000000000000000000000000000000000000000000000000000090AC70
:39232E000000000000000000000000000000000000000000000000000000000000000000000000000000000000000000000000000000000000000080F9FD
:392367000000000000000000000000000000000000000000000000000000000000000000000000000000000000000000000000000000000000000080F9C4
:3923A0000000000000000000000000000000000000000000000000000000000000000000000000000000000000000000000000000000000000000080F98B
:3923D9000000000000000000000000000000000000000000000000000000000000000000000000000000000000000000000000000000000000000080F952
:392412000800000000000000000000000000000000000000000000000000000000000000000000000000000000000000000000000000000000000020DB8E
:39244B000000000000000000000000000000000000000000000000000000000000000000000000000000000000000000000000000000000000000080F9DF
:392484000000000000000000000000000000000000000000000000000000000000000000000000000000000000000000000000000000000000000080F9A6
:3924BD000400000000000000000000000000000000000000000000000000000000000000000000000000000000000000000000000000000000000090ACA6
:3924F6000000000000000000000000000000000000000000000000000000000000000000000000000000000000000000000000000000000000000080F934
:39252F000000000000000000000000000000000000000000000000000000000000000000000000000000000000000000000000000000000000000080F9FA
:392568000000000000000000000000000000000000000000000000000000000000000000000000000000000000000000000000000000000000000080F9C1
:3925A1000000000000000000000000000000000000000000000000000000000000000000000000000000000000000000000000000000000000000080F988
:3925DA000C000000000000000000000000000000000000000000000000000000000000000000000000000000000000000000000000000000000000209FFD
:392613000400000000000000000000000000000000000000000000000000000000000000000000000000000000000000000000000000000000000080BD4D
:39264C000000000000000000000000000000000000000000000000000000000000000000000000000000000000000000000000000000000000000080F9DC
:392685000C00000000000000000000000000000000000000000000000000000000000000000000000000000000000000000000000000000000000010AC54
:3926BE000000000000000000000000000000000000000000000000000000000000000000000000000000000000000000000000000000000000000080F96A
:3926F7000000000000000000000000000000000000000000000000000000000000000000000000000000000000000000000000000000000000000080F931
:392730000000000000000000000000000000000000000000000000000000000000000000000000000000000000000000000000000000000000000080F9F7
:392769000000000000000000000000000000000000000000000000000000000000000000000000000000000000000000000000000000000000000080F9BE
:3927A2000800000000000000000000000000000000000000000000000000000000000000000000000000000000000000000000000000000000000020DBFB
:3927DB000000000000000000000000000000000000000000000000000000000000000000000000000000000000000000000000000000000000000080F94C
:392814000000000000000000000000000000000000000000000000000000000000000000000000000000000000000000000000000000000000000080F912
:39284D000400000000000000000000000000000000000000000000000000000000000000000000000000000000000000000000000000000000000090AC12
:392886000000000000000000000000000000000000000000000000000000000000000000000000000000000000000000000000000000000000000080F9A0
:3928BF000000000000000000000000000000000000000000000000000000000000000000000000000000000000000000000000000000000000000080F967
:3928F8002000048000100002400008000120000480001000000000000000000000000000000000800010000240000800012000048000100002400080F9AA
:392931000000000000000000000000000000000000000000000000000000000000000000000000000000000000000000000000000000000000000080F9F4
:39296A002800048000100002400008000120000480001000000000000000000000000000000000800010000240000800012000048000100002400020DBAD
:3929A3000000000000000000000000000000000000000000000000000000000000000000000000000000000000000000000000000000000000000080F982
:3929DC002000048000100002400008000120000480001000000000000000000000000000000000800010000240000800012000048000100002400080F9C5
:392A15000400000000000000000000000000000000000000000000000000000000000000000000000000000000000000000000000000000000000090AC48
:392A4E002000048000100002400008000120000480001000000000000000000000000000000000800010000240000800012000048000100002400080F952
:392A87000000000000000000000000000000000000000000000000000000000000000000000000000000000000000000000000000000000000000080F99D
:392AC0000000000000000000000000000000000000000000000000000000000000000000000000000000000000000000000000000000000000000080F964
:392AF9000000000000000000000000000000000000000000000000000000000000000000000000000000000000000000000000000000000000000080F92B
:392B32000000000000000000000000000000000000000000000000000000000000000000000000000000000000000000000000000000000000000080F9F1
:392B6B000000000000000000000000000000000000000000000000000000000000000000000000000000000000000000000000000000000000000080F9B8
:392BA4000000000000000000000000000000000000000000000000000000000000000000000000000000000000000000000000000000000000000080F97F
:392BDD000000000000000000000000000000000000000000000000000000000000000000000000000000000000000000000000000000000000000080F946
:392C16000000000000000000000000000000000000000000000000000000000000000000000000000000000000000000000000000000000000000080F90C
:392C4F000000000000000000000000000000000000000000000000000000000000000000000000000000000000000000000000000000000000000080F9D3
:392C88000000000000000000000000000000000000000000000000000000000000000000000000000000000000000000000000000000000000000080F99A
:392CC1000000000000000000000000000000000000000000000000000000000000000000000000000000000000000000000000000000000000000080F961
:392CFA000000000000000000000000000000000000000000000000000000000000000000000000000000000000000000000000000000000000000080F928
:392D33000000000000000000000000000000000000000000000000000000000000000000000000000000000000000000000000000000000000000080F9EE
:392D6C000000000000000000000000000000000000000000000000000000000000000000000000000000000000000000000000000000000000000080F9B5
:392DA5000000000000000000000000000000000000000000000000000000000000000000000000000000000000000000000000000000000000000080F97C
:392DDE000000000000000000000000000000000000000000000000000000000000000000000000000000000000000000000000000000000000000080F943
:392E17000000000000000000000000000000000000000000000000000000000000000000000000000000000000000000000000000000000000000080F909
:392E50000000000000000000000000000000000000000000000000000000000000000000000000000000000000000000000000000000000000000080F9D0
:392E89000000000000000000000000000000000000000000000000000000000000000000000000000000000000000000000000000000000000000080F997
:392EC2000000000000000000000000000000000000000000000000000000000000000000000000000000000000000000000000000000000000000080F95E
:392EFB000000000000000000000000000000000000000000000000000000000000000000000000000000000000000000000000000000000000000080F925
:392F34000000000000000000000000000000000000000000000000000000000000000000000000000000000000000000000000000000000000000080F9EB
:392F6D000000000000000000000000000000000000000000000000000000000000000000000000000000000000000000000000000000000000000080F9B2
:392FA6000000000000000000000000000000000000000000000000000000000000000000000000000000000000000000000000000000000000000080F979
:392FDF000000000000000000000000000000000000000000000000000000000000000000000000000000000000000000000000000000000000000080F940
:393018000000000000000000000000000000000000000000000000000000000000000000000000000000000000000000000000000000000000000080F906
:393051000000000000000000000000000000000000000000000000000000000000000000000000000000000000000000000000000000000000000080F9CD
:39308A000000000000000000000000000000000000000000000000000000000000000000000000000000000000000000000000000000000000000080F994
:3930C3000000000000000000000000000000000000000000000000000000000000000000000000000000000000000000000000000000000000000080F95B
:3930FC000000000000000000000000000000000000000000000000000000000000000000000000000000000000000000000000000000000000000080F922
:393135000000000000000000000000000000000000000000000000000000000000000000000000000000000000000000000000000000000000000080F9E8
:39316E000000000000000000000000000000000000000000000000000000000000000000000000000000000000000000000000000000000000000080F9AF
:3931A7000000000000000000000000000000000000000000000000000000000000000000000000000000000000000000000000000000000000000080F976
:3931E0000000000000000000000000000000000000000000000000000000000000000000000000000000000000000000000000000000000000000080F93D
:393219000000000000000000000000000000000000000000000000000000000000000000000000000000000000000000000000000000000000000080F903
:393252000000000000000000000000000000000000000000000000000000000000000000000000000000000000000000000000000000000000000080F9CA
:39328B000000000000000000000000000000000000000000000000000000000000000000000000000000000000000000000000000000000000000080F991
:3932C4000000000000000000000000000000000000000000000000000000000000000000000000000000000000000000000000000000000000000080F958
:3932FD000000000000000000000000000000000000000000000000000000000000000000000000000000000000000000000000000000000000000080F91F
:393336000000000000000000000000000000000000000000000000000000000000000000000000000000000000000000000000000000000000000080F9E5
:39336F000000000000000000000000000000000000000000000000000000000000000000000000000000000000000000000000000000000000000080F9AC
:3933A8000000000000000000000000000000000000000000000000000000000000000000000000000000000000000000000000000000000000000080F973
:3933E1000000000000000000000000000000000000000000000000000000000000000000000000000000000000000000000000000000000000000080F93A
:39341A000000000000000000000000000000000000000000000000000000000000000000000000000000000000000000000000000000000000000080F900
:393453000000000000000000000000000000000000000000000000000000000000000000000000000000000000000000000000000000000000000080F9C7
:39348C000000000000000000000000000000000000000000000000000000000000000000000000000000000000000000000000000000000000000080F98E
:3934C5000000000000000000000000000000000000000000000000000000000000000000000000000000000000000000000000000000000000000080F955
:3934FE000000000000000000000000000000000000000000000000000000000000000000000000000000000000000000000000000000000000000080F91C
:393537000000000000000000000000000000000000000000000000000000000000000000000000000000000000000000000000000000000000000080F9E2
:393570000000000000000000000000000000000000000000000000000000000000000000000000000000000000000000000000000000000000000080F9A9
:3935A9000000000000000000000000000000000000000000000000000000000000000000000000000000000000000000000000000000000000000080F970
:3935E2000800000000000000000000000000000000000000000000000000000000000000000000000000000000000000000000000000000000000020DBAD
:39361B000000000000000000000000000000000000000000000000000000000000000000000000000000000000000000000000000000000000000080F9FD
:393654000000000000000000000000000000000000000000000000000000000000000000000000000000000000000000000000000000000000000080F9C4
:39368D000400000000000000000000000000000000000000000000000000000000000000000000000000000000000000000000000000000000000090ACC4
:3936C6000000000000000000000000000000000000000000000000000000000000000000000000000000000000000000000000000000000000000080F952
:3936FF000000000000000000000000000000000000000000000000000000000000000000000000000000000000000000000000000000000000000080F919
:393738000000000000000000000000000000000000000000000000000000000000000000000000000000000000000000000000000000000000000080F9DF
:393771000000000000000000000000000000000000000000000000000000000000000000000000000000000000000000000000000000000000000080F9A6
:3937AA000800000000000000000000000000000000000000000000000000000000000000000000000000000000000000000000000000000000000030CAE4
:3937E3000000000000000000000000000000000000000000000000000000000000000000000000000000000000000000000000000000000000000090E835
:39381C000000000000000000000000000000000000000000000000000000000000000000000000000000000000000000000000000000000000000080F9FA
:3938550004000000000000000000000000000000000000000000000000000000000000000000000000000000000000000000000000000000000000B08EF8
:39388E000000000000000000000000000000000000000000000000000000000000000000000000000000000000000000000000000000000000000080F988
:3938C7000000000000000000000000000000000000000000000000000000000000000000000000000000000000000000000000000000000000000080F94F
:393900000000000000000000000000000000000000000000000000000000000000000000000000000000000000000000000000000000000000000080F915
:393939000000000000000000000000000000000000000000000000000000000000000000000000000000000000000000000000000000000000000080F9DC
:393972000800000000000000000000000000000000000000000000000000000000000000000000000000000000000000000000000000000000000020DB19
:3939AB000000000000000000000000000000000000000000000000000000000000000000000000000000000000000000000000000000000000000080F96A
:3939E4000000000000000000000000000000000000000000000000000000000000000000000000000000000000000000000000000000000000000080F931
:393A1D000400000000000000000000000000000000000000000000000000000000000000000000000000000000000000000000000000000000000090AC30
:393A56000000000000000000000000000000000000000000000000000000000000000000000000000000000000000000000000000000000000000080F9BE
:393A8F000000000000000000000000000000000000000000000000000000000000000000000000000000000000000000000000000000000000000080F985
:393AC8000000000000000000000000000000000000000000000000000000000000000000000000000000000000000000000000000000000000000080F94C
:393B01000000000000000000000000000000000000000000000000000000000000000000000000000000000000000000000000000000000000000080F912
:393B3A000800000000000000000000000000000000000000000000000000000000000000000000000000000000000000000000000000000000000020DB4F
:393B73000000000000000000000000000000000000000000000000000000000000000000000000000000000000000000000000000000000000000080F9A0
:393BAC000000000000000000000000000000000000000000000000000000000000000000000000000000000000000000000000000000000000000080F967
:393BE5000400000000000000000000000000000000000000000000000000000000000000000000000000000000000000000000000000000000000090AC67
:393C1E000000000000000000000000000000000000000000000000000000000000000000000000000000000000000000000000000000000000000080F9F4
:393C57000000000000000000000000000000000000000000000000000000000000000000000000000000000000000000000000000000000000000080F9BB
:393C90000000000000000000000000000000000000000000000000000000000000000000000000000000000000000000000000000000000000000080F982
:393CC9000000000000000000000000000000000000000000000000000000000000000000000000000000000000000000000000000000000000000080F949
:393D02000800000000000000000000000000000000000000000000000000000000000000000000000000000000000000000000000000000000000020DB85
:393D3B000000000000000000000000000000000000000000000000000000000000000000000000000000000000000000000000000000000000000080F9D6
:393D74000000000000000000000000000000000000000000000000000000000000000000000000000000000000000000000000000000000000000080F99D
:393DAD000400000000000000000000000000000000000000000000000000000000000000000000000000000000000000000000000000000000000090AC9D
:393DE6000000000000000000000000000000000000000000000000000000000000000000000000000000000000000000000000000000000000000080F92B
:393E1F000000000000000000000000000000000000000000000000000000000000000000000000000000000000000000000000000000000000000080F9F1
:393E58000000000000000000000000000000000000000000000000000000000000000000000000000000000000000000000000000000000000000080F9B8
:393E91000000000000000000000000000000000000000000000000000000000000000000000000000000000000000000000000000000000000000080F97F
:393ECA000800000000000000000000000000000000000000000000000000000000000000000000000000000000000000000000000000000000000020DBBC
:393F03000000000000000000000000000000000000000000000000000000000000000000000000000000000000000000000000000000000000000080F90C
:393F3C000000000000000000000000000000000000000000000000000000000000000000000000000000000000000000000000000000000000000080F9D3
:393F75000400000000000000000000000000000000000000000000000000000000000000000000000000000000000000000000000000000000000090ACD3
:393FAE000000000000000000000000000000000000000000000000000000000000000000000000000000000000000000000000000000000000000080F961
:393FE7000000000000000000000000000000000000000000000000000000000000000000000000000000000000000000000000000000000000000080F928
:394020000000000000000000000000000000000000000000000000000000000000000000000000000000000000000000000000000000000000000080F9EE
:394059000000000000000000000000000000000000000000000000000000000000000000000000000000000000000000000000000000000000000080F9B5
:394092000800000000000000000000000000000000000000000000000000000000000000000000000000000000000000000000000000000000000020DBF2
:3940CB000000000000000000000000000000000000000000000000000000000000000000000000000000000000000000000000000000000000000080F943
:394104000000000000000000000000000000000000000000000000000000000000000000000000000000000000000000000000000000000000000080F909
:39413D000400000000000000000000000000000000000000000000000000000000000000000000000000000000000000000000000000000000000090AC09
:394176000000000000000000000000000000000000000000000000000000000000000000000000000000000000000000000000000000000000000080F997
:3941AF000000000000000000000000000000000000000000000000000000000000000000000000000000000000000000000000000000000000000080F95E
:3941E8002000048000100002400008000120000480001000000000000000000000000000000000800010000240000800012000048000100002400080F9A1
:394221000000000000000000000000000000000000000000000000000000000000000000000000000000000000000000000000000000000000000080F9EB
:39425A002800048000100002400008000120000480001000000000000000000000000000000000800010000240000800012000048000100002400020DBA4
:394293000000000000000000000000000000000000000000000000000000000000000000000000000000000000000000000000000000000000000080F979
:3942CC002000048000100002400008000120000480001000000000000000000000000000000000800010000240000800012000048000100002400080F9BC
:394305000400000000000000000000000000000000000000000000000000000000000000000000000000000000000000000000000000000000000090AC3F
:39433E002000048000100002400008000120000480001000000000000000000000000000000000800010000240000800012000048000100002400080F949
:394377000000000000000000000000000000000000000000000000000000000000000000000000000000000000000000000000000000000000000080F994
:3943B0000000000000000000000000000000000000000000000000000000000000000000000000000000000000000000000000000000000000000080F95B
:3943E9000000000000000000000000000000000000000000000000000000000000000000000000000000000000000000000000000000000000000080F922
:394422000000000000000000000000000000000000000000000000000000000000000000000000000000000000000000000000000000000000000080F9E8
:39445B000000000000000000000000000000000000000000000000000000000000000000000000000000000000000000000000000000000000000080F9AF
:394494000000000000000000000000000000000000000000000000000000000000000000000000000000000000000000000000000000000000000080F976
:3944CD000000000000000000000000000000000000000000000000000000000000000000000000000000000000000000000000000000000000000080F93D
:394506000000000000000000000000000000000000000000000000000000000000000000000000000000000000000000000000000000000000000080F903
:39453F000000000000000000000000000000000000000000000000000000000000000000000000000000000000000000000000000000000000000080F9CA
:394578000000000000000000000000000000000000000000000000000000000000000000000000000000000000000000000000000000000000000080F991
:3945B1000000000000000000000000000000000000000000000000000000000000000000000000000000000000000000000000000000000000000080F958
:3945EA000000000000000000000000000000000000000000000000000000000000000000000000000000000000000000000000000000000000000080F91F
:394623000000000000000000000000000000000000000000000000000000000000000000000000000000000000000000000000000000000000000080F9E5
:39465C000000000000000000000000000000000000000000000000000000000000000000000000000000000000000000000000000000000000000080F9AC
:394695000000000000000000000000000000000000000000000000000000000000000000000000000000000000000000000000000000000000000080F973
:3946CE000000000000000000000000000000000000000000000000000000000000000000000000000000000000000000000000000000000000000080F93A
:394707000000000000000000000000000000000000000000000000000000000000000000000000000000000000000000000000000000000000000080F900
:394740000000000000000000000000000000000000000000000000000000000000000000000000000000000000000000000000000000000000000080F9C7
:394779000000000000000000000000000000000000000000000000000000000000000000000000000000000000000000000000000000000000000080F98E
:3947B2000000000000000000000000000000000000000000000000000000000000000000000000000000000000000000000000000000000000000080F955
:3947EB000000000000000000000000000000000000000000000000000000000000000000000000000000000000000000000000000000000000000080F91C
:394824000000000000000000000000000000000000000000000000000000000000000000000000000000000000000000000000000000000000000080F9E2
:39485D000000000000000000000000000000000000000000000000000000000000000000000000000000000000000000000000000000000000000080F9A9
:394896000000000000000000000000000000000000000000000000000000000000000000000000000000000000000000000000000000000000000080F970
:3948CF000000000000000000000000000000000000000000000000000000000000000000000000000000000000000000000000000000000000000080F937
:394908000000000000000000000000000000000000000000000000000000000000000000000000000000000000000000000000000000000000000080F9FD
:394941000000000000000000000000000000000000000000000000000000000000000000000000000000000000000000000000000000000000000080F9C4
:39497A000000000000000000000000000000000000000000000000000000000000000000000000000000000000000000000000000000000000000080F98B
:3949B3000000000000000000000000000000000000000000000000000000000000000000000000000000000000000000000000000000000000000080F952
:3949EC000000000000000000000000000000000000000000000000000000000000000000000000000000000000000000000000000000000000000080F919
:394A25000000000000000000000000000000000000000000000000000000000000000000000000000000000000000000000000000000000000000080F9DF
:394A5E000000000000000000000000000000000000000000000000000000000000000000000000000000000000000000000000000000000000000080F9A6
:394A97000000000000000000000000000000000000000000000000000000000000000000000000000000000000000000000000000000000000000080F96D
:394AD0000000000000000000000000000000000000000000000000000000000000000000000000000000000000000000000000000000000000000080F934
:394B09000000000000000000000000000000000000000000000000000000000000000000000000000000000000000000000000000000000000000080F9FA
:394B42000000000000000000000000000000000000000000000000000000000000000000000000000000000000000000000000000000000000000080F9C1
:394B7B000000000000000000000000000000000000000000000000000000000000000000000000000000000000000000000000000000000000000080F988
:394BB4000000000000000000000000000000000000000000000000000000000000000000000000000000000000000000000000000000000000000080F94F
:394BED000000000000000000000000000000000000000000000000000000000000000000000000000000000000000000000000000000000000000080F916
:394C26000000000000000000000000000000000000000000000000000000000000000000000000000000000000000000000000000000000000000080F9DC
:394C5F004008802000000000000000000000000000000004000000000000000000000000000000000000000000000000000000000000000000000080BFF1
:394C98000020200000000000000000000000000000002010000000000000000000000000000000000000000000000000000000000000000000000080E80B
:394CD1000000000000000000000000000000000000000000000000000000000000000000000000000000000000000000000000000000000000000080F931
:394D0A000000000000000000000000000000000000000000000000000000000000000000000000000000000000000000000000000000000000000080F9F7
:394D4300003AE0024800092001248004900012400248001D000000000000000000000000000000004800092001248004900012400248000920012480AAFA
:394D7C00004C9001300006C00018000360000C800130002600000000000000000000000000000000300006C00018000360000C8001300006C00018808FB2
:024DB500FFFFFE
:00000001FF
